S00E00007468745F55362E73726563DC
S11300000C942A000C9447000C9447000C94B901FA
S11300100C9447000C9447000C9447000C94470040
S11300200C9447000C9447000C9447000C9427024E
S11300300C9447000C9447000C9447000C94470020
S11300400C9447000C9447000C9447000C94470010
S11300500C94470011241FBECFE5D4E0DEBFCDBF12
S113006010E0A0E6B0E0EAE4F5E202C005900D92EB
S1130070A23DB107D9F721E0A2EDB0E001C01D9285
S1130080A235B207E1F70E944F0C0C94A3120C9412
S1130090000085BB82B38F7B82BB82B3806882BB46
S11300A085E08A95F1F7000082B38F7782BB8FEDEC
S11300B09EE20197F1F700C00000089585BB82B36A
S11300C0806482BB82B3806882BB85E08A95F1F745
S11300D0000082B38F7782BB8FE99FE00197F1F72D
S11300E000C00000089585BB82B3806482BB82B3E4
S11300F0806882BB85E08A95F1F7000082B38F7730
S113010082BB8FE99FE00197F1F700C000000895DA
S113011081B3806C81BB8FEF84BB2FEF89EF90E0BC
S1130120215080409040E1F700C0000088E30E9425
S1130130490025E02A95F1F7000081E00E9449007A
S113014085E08A95F1F700008EE00E94490095E071
S11301509A95F1F7000080E80E94490087EC90E04E
S11301600197F1F700C0000008950F931F93CF93F8
S1130170DF938C01C0E0D0E003C00E94730021969D
S1130180F801EC0FFD1F80818111F7CFDF91CF9132
S11301901F910F910895CF93DF9300D000D0CDB776
S11301A0DEB790E8998390EC9A8394E99B8394ED6D
S11301B09C83E82FF0E0319781E090E08C0F9D1F45
S11301C0E80FF91F8081860F81500E9449008FE358
S11301D09CE90197F1F700C000000F900F900F9079
S11301E00F90DF91CF91089581E00E94490080E84B
S11301F00E94490008950F931F93CF93DF938C01BE
S11302009C013695279536952795ABE7B4E10E9476
S1130210820FAC01569547959A01ADECBCEC0E9457
S1130220820F9695879596958795969587959C01C7
S1130230220F331F880F991F880F991F880F991F4A
S1130240820F931F9A01281B390BC901805D0E94FC
S113025073009801ADECBCEC0E94820FEC01D695C2
S1130260C795D695C795D695C7959E010E94820FCE
S11302709695879596958795969587959C01220FD7
S1130280331F880F991F880F991F880F991F820F9A
S1130290931F9E01281B390BC901805D0E947300C6
S11302A08EE20E945E00CE01880F991FCC0FDD1FE5
S11302B0CC0FDD1FCC0FDD1FC80FD91FC8018C1B4D
S11302C09D0B805D0E947300DF91CF911F910F9170
S11302D0089587B3886087BB83B78B6483BF12BEDE
S11302E07894089583B7806283BF12BE089583B75C
S11302F08F7C83BF88B3877F88BB089581B3806276
S113030081BB8FEF90E097BD86BD8FB58E738FBD97
S11303108EB58B7F8EBD8FB582608FBD8EB58B61A0
S11303208EBD1BBC1ABC1DBC1CBC789408958FB533
S113033080688FBD1DBC1CBC08958FB58F738FBDA5
S113034082B38F7D82BB089585B58D6085BD8CE7B2
S113035083BD8FEF83BD89B7806889BF14BC1092B9
S1130360E5001092E6001092E7001092E8007894FD
S113037008951F920F920FB60F9211242F933F935B
S11303804F935F936F937F938F939F93AF93BF9399
S1130390EF93FF938091E5009091E600A091E70030
S11303A0B091E8000196A11DB11D8093E5009093E2
S11303B0E600A093E700B093E8000E94FE0CFF91D2
S11303C0EF91BF91AF919F918F917F916F915F91C9
S11303D04F913F912F910F900FBE0F901F90189542
S11303E06091E5007091E6008091E7009091E8004B
S11303F008952FEF2093EC002093EB00DC01CB0158
S1130400880F991FAA1FBB1F880F991FAA1FBB1F04
S11304109C01AD01220F331F441F551F60E074E29D
S113042084EF90E00E94600F2150310971F08AB18D
S113043088698AB980B5866880BD8BB182608BB9C2
S113044029B930BD789481E0089580E008951F9221
S11304500F920FB60F9211242F933F934F938F93C4
S11304609F93EF93FF934CB18091EC00893521F475
S11304708091EB00882371F08091EC00082E000C31
S1130480990B01962091EB00022E000C330B82177E
S1130490930759F48091EB008F5F8093EB00809178
S11304A0EB008A3511F41092EB008091EC00893551
S11304B019F41092EC0005C08091EC008F5F8093DA
S11304C0EC00E091EC000E2E000CFF0BE351FF4F0B
S11304D040838091EB008F3F11F41092EB00FF9169
S11304E0EF919F918F914F913F912F910F900FBE5C
S11304F00F901F9018958091EB008F3F11F410928C
S1130500EB00E091EB000E2E000CFF0BE351FF4FCC
S113051080812091EB009091EC00291306C09FEF9D
S11305209093EC009093EB0008959091EB009F5F03
S11305309093EB009091EB009A3511F41092EB003C
S113054008958091EB008F3FD1F09091EB00809162
S1130550EC0098173CF48091EC009091EB00891B1F
S11305608F5F08959091EB008091EC0089174CF413
S11305708091EC009091EB00891B855A089580E0EE
S1130580089581E008950F931F93CF93DF93CDB720
S1130590DEB72A970FB6F894DEBF0FBECDBF61E079
S11305A081E00E94CB0080915101813011F08330B1
S11305B091F58CB799E2899F812D11241DEC8295C8
S11305C08F70805D0E9473008CB7819F812D1124F0
S11305D0869586958695819F912D1124969596955D
S11305E09695990F292F220F220F920F891B805D58
S11305F00E9473008CB7819F112D112416951695B6
S11306001695110F912F990F990F190F811B805D6A
S11306100E94730071C02AB53BB53695279536956F
S11306202795ABE7B4E10E94820FAC01569547953C
S11306309A01ADECBCEC0E94820F96958795969535
S11306408795969587959C01220F331F880F991FD4
S1130650880F991F880F991F820F931F9A01281BD7
S1130660390BC901805D0E9473002AB53BB5ADEC1E
S1130670BCEC0E94820FAC01569547955695479560
S1130680569547959A010E94820F9695879596955F
S11306908795969587959C01220F331F880F991F84
S11306A0880F991F880F991F820F931F9A01281B87
S11306B0390BC901805D0E9473004AB55BB59A018C
S11306C0ADECBCEC0E94820F969587959695879524
S11306D0969587959C01220F331F880F991F880FC9
S11306E0991F880F991F820F931F9A01281B390B9A
S11306F0C901805D0E9473008CE20E94730066E071
S113070081E00E94CB008EE30E947300809151012E
S1130710813039F486E40E94730083E40E947300FC
S113072023C0823039F486E40E94730088E40E9476
S113073073001AC0833039F480E50E94730083E4A7
S11307400E94730011C0843039F480E50E94730064
S113075088E40E94730008C0853031F480E20E946E
S1130760730083E50E94730061E082E00E94CB0085
S11307708091D9008F938091D8008F938091D70076
S11307808F938091D6008F9386E690E09F938F930A
S11307908E010F5F1F4F1F930F930E94910FC8018B
S11307A00E94B5000FB6F894DEBF0FBECDBF2A96E7
S11307B00FB6F894DEBF0FBECDBFDF91CF911F916E
S11307C00F9108954F925F926F927F928F929F92B2
S11307D0AF92BF92CF92DF92EF92FF920F931F934B
S11307E0CF93DF93CDB7DEB760970FB6F894DEBF33
S11307F00FBECDBF6D837E838F83988729013A0115
S1130800E982FA820B831C83C601B50120E030E043
S1130810A9010E94F30E69877A878B879C87A301BD
S113082092016D817E818F8198850E94220D6B01DA
S11308307C0120E030E040E85FE30E948F0D8823D4
S1130840A4F420E030E040E85FEBC701B6010E9469
S1130850EE0E181654F488B3816088BB88B38D7F7C
S113086088BB88B3846088BB09C088B38E7F88BB8B
S113087088B3826088BB88B38B7F88BB20E030E07C
S113088040E85FEBC701B6010E948F0D8823A4F4F2
S11308900E949D018FEF8093E2008CBF1092D600DE
S11308A01092D7001092D8001092D9000E947201C1
S11308B081E08093510157C120E030E040E85FE3DC
S11308C0C701B6010E94EE0E1816C4F40E94770107
S11308D08FEF90E09093E1008093E0009BBD8ABD90
S11308E01092D6001092D7001092D8001092D9001E
S11308F00E94970182E08093510135C120E030E0ED
S1130900A901C701B6010E948F0D882344F4D701C1
S1130910C601B0588D839E83AF83B88704C0CD824F
S1130920DE82EF82F88629853A854B855C856D8168
S11309307E818F8198850E94F30E2091D60030919C
S1130940D7004091D8005091D9000E94230D4B014B
S11309505C016093D6007093D7008093D800909385
S1130960D90029813A814B815C81CA01B9010E9475
S1130970230D20E030E040E251E40E94940D6D87A5
S11309807E878F87988B9B01AC01C501B4010E94BF
S1130990EE0E18166CF48D859E85AF85B88980930C
S11309A0D6009093D700A093D800B093D90011C07B
S11309B020E030E0A901C501B4010E948F0D882315
S11309C044F41092D6001092D7001092D8001092DE
S11309D0D90020E030E0A90169857A858B859C8562
S11309E00E948F0D811108C01092D6001092D7007A
S11309F01092D8001092D9002091D2003091D300E7
S1130A004091D4005091D500C301B2010E94220D3F
S1130A104B015C0120E030E0A9010E948F0D882386
S1130A2024F4B7FAB094B7F8B09429813A814B8191
S1130A305C816D817E818F8198850E94F30E209167
S1130A40D6003091D7004091D8005091D9000E942F
S1130A50230D69837A838B839C8329853A854B850F
S1130A605C85C501B4010E94F30E9B01AC01698150
S1130A707A818B819C810E94220D4B015C0120E0D4
S1130A8030E04FE753E40E94EE0E18165CF020E0CD
S1130A9030E04FE753ECC501B4010E948F0D882369
S1130AA054F011C00F2E812C912CFFE7AF2EF3E4EC
S1130AB0BF2EF02D08C00F2E812C912CFFE7AF2EF6
S1130AC0F3ECBF2EF02DC501B4010E94060E8B017C
S1130AD0772324F400271127061B170B20E030E0AE
S1130AE0A901C701B6010E94EE0E181684F40E94F3
S1130AF07701802F912F9093E1008093E0009BBDBC
S1130B008ABD0E94970184E0809351012CC020E0AB
S1130B1030E0A901C701B6010E948F0D88235CF45F
S1130B200E949D010093E2000CBF0E94720183E0C9
S1130B308093510118C01092E2001CBE1092E10093
S1130B401092E0001BBC1ABC1092D6001092D70081
S1130B501092D8001092D9000E9477010E949D0142
S1130B6085E0809351014092D2005092D30060926C
S1130B70D4007092D500C701B60160960FB6F89400
S1130B80DEBF0FBECDBFDF91CF911F910F91FF90BC
S1130B90EF90DF90CF90BF90AF909F908F907F9019
S1130BA06F905F904F9008954F925F926F927F92F3
S1130BB0AF92BF92CF92DF92EF92FF920F931F9367
S1130BC0CF93DF93CDB7DEB728970FB6F894DEBF87
S1130BD00FBECDBF2091DC003091DD003A83298324
S1130BE02033304379F48091DE009091DF00892B2B
S1130BF009F481C160E181E00E94CB0085E40E9498
S1130C00730079C189819A818A5F91098D329140FB
S1130C1078F08091DE009091DF00892B09F46BC19C
S1130C2060E181E00E94CB0082E50E94730063C111
S1130C3080914F0190915001009781F19C012451C2
S1130C40310949815A814217530720F04496841789
S1130C50950720F58091DE009091DF00892B39F013
S1130C6060E181E00E94CB0086E40E9473008091E1
S1130C704701909148010196909348018093470160
S1130C800B9708F438C110924801109247018981EA
S1130C909A819093500180934F012DC11092480185
S1130CA0109247018091DE009091DF00892B39F08A
S1130CB060E181E00E94CB008BE40E9473002981F3
S1130CC03A813093500120934F0130934D0120938A
S1130CD04C016CE081E00E94CB0080914C0190912A
S1130CE04D010E94FB008091DE009091DF00892B72
S1130CF009F482C02091620030916300ADECBCEC39
S1130D000E94820F7C01F694E794F694E794F6949B
S1130D10E7942091E3003091E4000E94820FAC013B
S1130D205695479556954795569547952091640055
S1130D30309165000E94820F3C017694679476940A
S1130D4067947694679420914C0130914D010E94F0
S1130D50820F9695879596958795969587959E8308
S1130D608D8320916000309161000E94820F8C017C
S1130D70169507951695079516950795BA0180E07F
S1130D8090E00E943C0E5B016C01B30180E090E0B6
S1130D900E943C0E69837A838B839C834D815E81A0
S1130DA0BA0180E090E00E943C0E6D837E838F83C5
S1130DB09887B80180E090E00E943C0E2B013C0132
S1130DC0B70180E090E00E943C0E9F938F937F9345
S1130DD06F93E980FA800B811C812D813E814F81C4
S1130DE05885C301B2010E94E2030E94C3020F901E
S1130DF00F900F900F907FC020916200309163009C
S1130E00ADECBCEC0E94820F8C01169507951695EB
S1130E100795169507952091E3003091E4000E9410
S1130E20820FAC015695479556954795569547952B
S1130E3020916400309165000E94820F96958795F9
S1130E4096958795969587959A83898320914C01E9
S1130E5030914D010E94820F3C0176946794769400
S1130E6067947694679420916000309161000E94A9
S1130E70820F2C0156944794569447945694479461
S1130E80BA0180E090E00E943C0E5B016C01298174
S1130E903A81B90180E090E00E943C0E69837A8334
S1130EA08B839C83B30180E090E00E943C0E6D83B1
S1130EB07E838F839887B20180E090E00E943C0E8D
S1130EC02B013C01B80180E090E00E943C0E9F930E
S1130ED08F937F936F93E980FA800B811C812D811E
S1130EE03E814F815885C301B2010E94E2030F90F5
S1130EF00F900F900F9028960FB6F894DEBF0FBE98
S1130F00CDBFDF91CF911F910F91FF90EF90DF90B4
S1130F10CF90BF90AF907F906F905F904F90089567
S1130F200F931F93CF93DF938C01883E23E09207A6
S1130F3078F19C0136952795369527953695279512
S1130F40A5ECB0E20E94820FAC01529542954F701D
S1130F5045275F7045279A01ADECBCEC0E94820FD7
S1130F609695879596958795969587959C01220FDA
S1130F70331F880F991F880F991F880F991F820F9D
S1130F80931F9A01281B390BC901805D0E945E00E2
S1130F9098013695279536952795ABE7B4E10E94DD
S1130FA0820FAC01569547959A01ADECBCEC0E94BA
S1130FB0820F9695879596958795969587959C012A
S1130FC0220F331F880F991F880F991F880F991FAD
S1130FD0820F931F9A01281B390BC901805D0E945F
S1130FE073009801ADECBCEC0E94820FEC01D69525
S1130FF0C795D695C795D695C7959E010E94820F31
S11310009695879596958795969587959C01220F39
S1131010331F880F991F880F991F880F991F820FFC
S1131020931F9E01281B390BC901805D0E94730028
S11310308EE20E945E00CE01880F991FCC0FDD1F47
S1131040CC0FDD1FCC0FDD1FC80FD91FC8018C1BAF
S11310509D0B805D0E94730080E20E945E00DF9120
S1131060CF911F910F910895CF92DF92EF92FF924B
S1131070CF93CA9904C2CB9902C20E9477010E94FD
S11310809D010E94F4002FEF80E792E02150804000
S11310909040E1F700C00000CA9902C0CB9BFCCF8E
S11310A061E082E00E94CB008CE690E00E94B500F3
S11310B080E30E94730081E790E00E94B50081E321
S11310C00E94730081E790E00E94B50086E30E94CD
S11310D0730061E081E00E94CB0083E790E00E940E
S11310E0B50080916400909165000E949007C0E073
S11310F020E062C0CA992CC0C1E0C20F8091640094
S113110090916500820F911D0196909365008093E4
S113111064008D349D4130F08CE49DE19093650032
S1131120809364006AE081E00E94CB0080916400B7
S1131130909165000E9490078FEF94E32CE081501A
S113114090402040E1F700C000002C2FC0E030C0E8
S1131150CB992EC02C2F30E0255F3F4F8091640047
S1131160909165002817390748F48C1B9109019761
S11311709093650080936400CF5F06C08AE090E09E
S113118090936500809364006AE081E00E94CB0044
S113119080916400909165000E9490078FEF94E322
S11311A02CE0815090402040E1F700C0000020E096
S11311B0CA9920E0CB99C0E0C9999CCF60916400A2
S11311C07091650086E990E00E944A128FEF90E7E3
S11311D022E0815090402040E1F700C00000C99B0C
S11311E0FECF61E081E00E94CB008DE790E00E9499
S11311F0B5008091E3009091E4000E949007C0E064
S113120020E060C0CA992CC0C1E0C20F8091E30005
S11312109091E400820F911D01969093E4008093D5
S1131220E300853F914030F084EF91E09093E40037
S11312308093E3006AE081E00E94CB008091E300A8
S11312409091E4000E9490078FEF94E32CE081508A
S113125090402040E1F700C000002C2FC0E02EC0D9
S1131260CB992CC02C2F30E02F5F3F4F8091E300AF
S11312709091E4002817390748F48C1B91090197D1
S11312809093E4008093E300CF5F04C01092E400E5
S11312901092E3006AE081E00E94CB008091E300B9
S11312A09091E4000E9490078FEF94E32CE081502A
S11312B090402040E1F700C0000020E0CA9920E0FF
S11312C0CB99C0E0C9999ECF6091E3007091E4008E
S11312D08AEA90E00E944A128FEF94E32CE0815056
S11312E090402040E1F700C00000C99BFECF61E0C0
S11312F081E00E94CB0087E890E00E94B5008091D5
S11313006200909163000E949007C0E020E060C0FA
S1131310CA992CC0C1E0C20F809162009091630011
S1131320820F911D01969093630080936200853F24
S1131330914030F084EF91E09093630080936200D9
S11313406AE081E00E94CB0080916200909163008A
S11313500E9490078FEF94E32CE08150904020404E
S1131360E1F700C000002C2FC0E02EC0CB992CC0A8
S11313702C2F30E02F5F3F4F8091620090916300EB
S11313802817390748F48C1B91090197909363003F
S113139080936200CF5F04C01092E4001092E300D7
S11313A06AE081E00E94CB0080916200909163002A
S11313B00E9490078FEF94E32CE0815090402040EE
S11313C0E1F700C0000020E0CA9920E0CB99C0E01A
S11313D0C9999ECF60916200709163008EEB90E09A
S11313E00E944A128FEF94E32CE0815090402040F9
S11313F0E1F700C00000C99BFECF0E94F400809179
S1131400DE009091DF00892BE9F061E081E00E9429
S1131410CB0081E990E00E94B50080914C0190914D
S11314204D010E94FB0061E082E00E94CB0081E953
S113143090E00E94B50080916000909161000E944C
S1131440FB004DC161E081E00E94CB008DE990E09A
S11314500E94B50080914C0190914D010E94FB00C7
S113146061E082E00E94CB0089EA90E00E94B5002E
S113147080916000909161000E94FB0030C1C99985
S1131480B0C00E9477010E949D018FEF90E722E097
S1131490815090402040E1F700C00000C99BFECF7E
S11314A06CE082E00E94CB0080916000909161002A
S11314B00E94900760E182E00E94CB008CE30E94CE
S11314C07300C0E020E070C0CA9933C0C1E0C20F0D
S11314D08091600090916100820F911D019690931C
S11314E0610080936000833C914030F082EC91E095
S11314F090936100809360006CE082E00E94CB00D6
S113150080916000909161000E94900760E182E008
S11315100E94CB008CE30E9473008FEF94E32CE0D5
S1131520815090402040E1F700C000002C2FC0E023
S113153037C0CB9935C02C2F30E029563F4F8091CE
S11315406000909161002817390748F48C1B9109B9
S113155001979093610080936000CF5F06C086E995
S113156090E090936100809360006CE082E00E94C0
S1131570CB0080916000909161000E94900760E12F
S113158082E00E94CB008CE30E9473008FEF94E30F
S11315902CE0815090402040E1F700C0000020E0A2
S11315A0CA9920E0CB99C0E0CC998ECF60916000BD
S11315B07091610082E890E00E944A128FEF90E7F8
S11315C022E0815090402040E1F700C00000CC9B15
S11315D0FECF60E182E00E94CB0080E20E947300B3
S11315E07EC0C9997CC00E94F0016B017C018FEF21
S11315F090E722E0815090402040E1F700C00000D5
S1131600C99BFECF0E94F001DC01CB0188579C4EA0
S1131610AF4FBF4FC816D906EA06FB060CF45FC0ED
S11316208091DE009091DF00892B59F581E090E0F4
S11316309093DF008093DE006091DE007091DF0004
S113164082ED90E00E944A1261E081E00E94CB00AA
S113165081E990E00E94B50080914C0190914D0188
S11316600E94FB0061E082E00E94CB0081E990E0EF
S11316700E94B50080916000909161000E94FB007F
S11316802EC08091DE009091DF00892B41F51092ED
S1131690DF001092DE006091DE007091DF0082EDC9
S11316A090E00E944A1261E081E00E94CB008DE943
S11316B090E00E94B50080914C0190914D010E94F0
S11316C0FB0061E082E00E94CB0089EA90E00E9486
S11316D0B50080916000909161000E94FB00CF9161
S11316E0FF90EF90DF90CF900895CF93DF938EE635
S11316F090E00E944412853C9D4109F08DC082E82F
S113170090E00E944412EC01909361008093600089
S113171086E990E00E9444129093650080936400EF
S11317208AEA90E00E9444129093E4008093E300DC
S11317308EEB90E00E9444129093630080936200C9
S113174082ED90E00E9444129093DF008093DE00CB
S1131750C659D109CD32D14060F08DE191E090932A
S11317606100809360006DE171E082E890E00E9486
S11317704A1280916400909165000A9783349D41D8
S113178060F08CED95E090936500809364006CEDBF
S113179075E086E990E00E944A128091E3009091FE
S11317A0E400853F914050F01092E4001092E30071
S11317B060E070E08AEA90E00E944A128091620040
S11317C090916300853F914060F085E090E09093B4
S11317D063008093620065E070E08EEB90E00E940D
S11317E04A128091DE009091DF00892B09F454C0E5
S11317F08091DE009091DF00019709F44DC01092B2
S1131800DF001092DE006091DE007091DF0082ED57
S113181090E00E944A1240C08DE191E090936100F3
S1131820809360006DE171E082E890E00E944A12CA
S11318308CED95E090936500809364006CED75E009
S113184086E990E00E944A121092E4001092E300AC
S113185060E070E08AEA90E00E944A1285E090E03D
S1131860909363008093620065E070E08EEB90E0FB
S11318700E944A121092DF001092DE006091DE0096
S11318807091DF0082ED90E00E944A1265EC7DE1E8
S11318908EE690E00E944A12DF91CF9108952FEFD7
S11318A080E792E0215080409040E1F700C00000C2
S11318B08AB3817E8ABB8BB38E618BBB0E94750B0E
S11318C060E072EC81E090E00E94F9018823C1F3AA
S11318D00E9488008091DE009091DF00892BE9F05E
S11318E061E081E00E94CB0081E990E00E94B500B4
S11318F080916000909161000E94FB0061E082E0B1
S11319000E94CB0081E990E00E94B50080916000C4
S1131910909161000E94FB0034C061E081E00E946C
S1131920CB0085EB90E00E94B50061E081E00E946D
S1131930CB0080EC90E00E94B5006CE081E00E9456
S1131940CB0080916000909161000E94FB0061E0F7
S113195082E00E94CB0085EB90E00E94B50061E03C
S113196082E00E94CB0089EC90E00E94B5006CE01C
S113197082E00E94CB0080916000909161000E94FF
S1131980FB000E9469010E947E010E94A40187B3AA
S1131990816087BB87B3826087BB87B3846087BB62
S11319A088B38E7F88BB0E94F0016B017C010E948A
S11319B0F001970186010E5C1F4F2F4F3F4F061712
S11319C0170728073907BCF40E94F0016B017C015A
S11319D08091DA009091DB00892B69F01092DB0092
S11319E01092DA000E94D40560E181E00E94CB00ED
S11319F080E20E9473000E943408D9CF0E94A102A1
S1131A0080FD0E947B020E94A1028230D0F00E94DD
S1131A107B0280934B010E947B0280934E012091B4
S1131A204B0130E0322F2227A901482BCA019093A1
S1131A30DD008093DC0081E090E09093DB008093F4
S1131A40DA0008955058BB27AA270E943A0D0C9437
S1131A50B40E0E94A60E38F00E94AD0E20F039F4A8
S1131A609F3F19F426F40C94A30E0EF4E095E7FBC3
S1131A700C949D0EE92F0E94C50E58F3BA17620705
S1131A8073078407950720F079F4A6F50C94E70E04
S1131A900EF4E0950B2EBA2FA02D0B01B901900185
S1131AA00C01CA01A0011124FF27591B99F0593FC9
S1131AB050F4503E68F11A16F040A22F232F342F11
S1131AC04427585FF3CF469537952795A795F0405F
S1131AD05395C9F77EF41F16BA0B620B730B840B74
S1131AE0BAF09150A1F0FF0FBB1F661F771F881F2C
S1131AF0C2F70EC0BA0F621F731F841F48F4879584
S1131B0077956795B795F7959E3F08F0B0CF939575
S1131B10880F08F09927EE0F9795879508950E94EE
S1131B20790E08F481E008950E94A80D0C94B40E77
S1131B300E94AD0E58F00E94A60E40F029F45F3FBB
S1131B4029F00C949D0E51110C94E80E0C94A30EE4
S1131B500E94C50E68F39923B1F3552391F3951BA5
S1131B60550BBB27AA2762177307840738F09F5FBA
S1131B705F4F220F331F441FAA1FA9F335D00E2E27
S1131B803AF0E0E832D091505040E695001CCAF794
S1131B902BD0FE2F29D0660F771F881FBB1F261757
S1131BA037074807AB07B0E809F0BB0B802DBF012E
S1131BB0FF2793585F4F3AF09E3F510578F00C94FD
S1131BC09D0E0C94E80E5F3FE4F3983ED4F38695A3
S1131BD077956795B795F7959F5FC9F7880F911D1E
S1131BE09695879597F90895E1E0660F771F881F0A
S1131BF0BB1F621773078407BA0720F0621B730BBD
S1131C00840BBA0BEE1F88F7E09508950E940D0E21
S1131C106894B1110C94E80E08950E94CD0E88F0DA
S1131C209F5798F0B92F9927B751B0F0E1F0660F9C
S1131C30771F881F991F1AF0BA95C9F714C0B130DD
S1131C4091F00E94E70EB1E008950C94E70E672F1F
S1131C50782F8827B85F39F0B93FCCF3869577950C
S1131C606795B395D9F73EF49095809570956195F5
S1131C707F4F8F4F9F4F0895E89409C097FB3EF420
S1131C8090958095709561957F4F8F4F9F4F9923C5
S1131C90A9F0F92F96E9BB279395F6958795779543
S1131CA06795B795F111F8CFFAF4BB0F11F460FF03
S1131CB01BC06F5F7F4F8F4F9F4F16C0882311F05B
S1131CC096E911C0772321F09EE8872F762F05C06F
S1131CD0662371F096E8862F70E060E02AF09A950A
S1131CE0660F771F881FDAF7880F9695879597F9FF
S1131CF00895990F0008550FAA0BE0E8FEEF161699
S1131D001706E807F907C0F012161306E407F507EB
S1131D1098F0621B730B840B950B39F40A2661F05F
S1131D20232B242B252B21F408950A2609F4A14002
S1131D30A6958FEF811D811D089597F99F6780E80F
S1131D4070E060E008959FEF80EC089500240A9409
S1131D501616170618060906089500240A94121682
S1131D601306140605060895092E0394000C11F4B5
S1131D70882352F0BB0F40F4BF2B11F460FF04C062
S1131D806F5F7F4F8F4F9F4F089557FD9058440FBB
S1131D90551F59F05F3F71F04795880F97FB991FC6
S1131DA061F09F3F79F08795089512161306140683
S1131DB0551FF2CF4695F1DF08C016161706180610
S1131DC0991FF1CF86957105610508940895E894EB
S1131DD0BB2766277727CB0197F908950E94790ED0
S1131DE008F48FEF08950E94060F0C94B40E0E941D
S1131DF0A60E38F00E94AD0E20F0952311F00C943D
S1131E009D0E0C94A30E11240C94E80E0E94C50E92
S1131E1070F3959FC1F3950F50E0551F629FF00139
S1131E20729FBB27F00DB11D639FAA27F00DB11D52
S1131E30AA1F649F6627B00DA11D661F829F2227DB
S1131E40B00DA11D621F739FB00DA11D621F839F62
S1131E50A00D611D221F749F3327A00D611D231F38
S1131E60849F600D211D822F762F6A2F11249F5786
S1131E7050409AF0F1F088234AF0EE0FFF1FBB1F89
S1131E80661F771F881F91505040A9F79E3F510548
S1131E9080F00C949D0E0C94E80E5F3FE4F3983EA2
S1131EA0D4F3869577956795B795F795E7959F5FF2
S1131EB0C1F7FE2B880F911D9695879597F9089584
S1131EC0A1E21A2EAA1BBB1BFD010DC0AA1FBB1F3A
S1131ED0EE1FFF1FA217B307E407F50720F0A21BAC
S1131EE0B30BE40BF50B661F771F881F991F1A9419
S1131EF069F760957095809590959B01AC01BD0143
S1131F00CF010895A29FB001B39FC001A39F700D9C
S1131F10811D1124911DB29F700D811D1124911DED
S1131F200895AEE0B0E0E7E9FFE00C947A120D8981
S1131F301E8986E08C831A8309838FEF9FE79E8333
S1131F408D83AE01475E5F4F6F89788DCE01019618
S1131F500E94B30FEF81F885E00FF11F10822E96D7
S1131F60E4E00C949612ABE0B0E0E9EBFFE00C94F3
S1131F706C126C017B018A01FC0117821682838139
S1131F8081FFCCC1CE0101963C01F6019381F7019A
S1131F9093FD859193FF81917F01882309F4BAC150
S1131FA0853239F493FD859193FF81917F018532C8
S1131FB029F4B60190E00E94AA11E7CF912C212CBC
S1131FC0312CFFE1F315D8F08B3279F038F48032FC
S1131FD079F08332A1F4232D20611DC08D3261F08C
S1131FE0803369F4232D216016C0832D8260382E3E
S1131FF0E32DE4603E2E2AC0F32DF8601DC037FCAB
S11320002DC020ED280F2A3040F08E32B9F436FC72
S113201081C1232D2064322E19C036FE06C08AE009
S1132020989E200D1124922E11C0EAE02E9E200DC0
S11320301124222EF32DF0623F2E08C08C3621F499
S1132040832D8068382E02C0883641F4F70193FD51
S1132050859193FF81917F018111B3CF982F9F7D4B
S11320609554933028F40C5F1F4F9FE399830DC060
S1132070833631F0833771F0833509F059C021C0BC
S1132080F801808189830E5F1F4F88248394912CEB
S1132090530113C02801F2E04F0E511CF801A08037
S11320A0B18036FE03C0692D70E002C06FEF7FEF90
S11320B0C5010E949F114C018201F32DFF773F2E31
S11320C016C0280122E0420E511CF801A080B18004
S11320D036FE03C0692D70E002C06FEF7FEFC501CB
S11320E00E9494114C01F32DF0683F2E820133FCC1
S11320F01BC0822D90E088169906B0F4B60180E2E8
S113210090E00E94AA112A94F4CFF50137FC85913E
S113211037FE81915F01B60190E00E94AA1121105F
S11321202A9421E0821A91088114910471F7E8C07D
S1132130843611F0893641F5F80137FE07C0608115
S11321407181828193810C5F1F4F08C0608171810E
S1132150072E000C880B990B0E5F1F4FF32DFF7693
S11321603F2E97FF09C090958095709561957F4F9C
S11321708F4F9F4FF0683F2E2AE030E0A3010E946A
S1132180E611882E861845C0853731F4232D2F7E1D
S1132190B22E2AE030E025C0932D997FB92E8F36D8
S11321A0C1F018F4883579F0B5C0803719F0883754
S11321B021F0B0C0E92FE061BE2EB4FE0DC0FB2DAE
S11321C0F460BF2E09C034FE0AC0292F2660B22E47
S11321D006C028E030E005C020E130E002C020E184
S11321E032E0F801B7FE07C060817181828193817A
S11321F00C5F1F4F06C06081718180E090E00E5F2C
S11322001F4FA3010E94E611882E8618FB2DFF772D
S11322103F2E36FE0DC0232D2E7FA22E891458F496
S113222034FE0BC032FC09C0832D8E7EA82E05C05F
S1132230B82CA32C03C0B82C01C0B92CA4FE0FC029
S1132240FE01E80DF11D8081803321F49A2D997EE1
S1132250A92E09C0A2FE06C0B394B39404C08A2D6B
S1132260867809F0B394A3FC11C0A0FE06C0B21492
S113227088F4280C922C9B180EC0B21460F4B6019A
S113228080E290E00E94AA11B394F7CFB21418F43C
S11322902B1802C0982C212CA4FE10C0B60180E398
S11322A090E00E94AA11A2FE17C0A1FC03C088E717
S11322B090E002C088E590E0B6010CC08A2D8678D3
S11322C059F0A1FE02C08BE201C080E2A7FC8DE2BE
S11322D0B60190E00E94AA11891438F4B60180E393
S11322E090E00E94AA119A94F7CF8A94F301E80D22
S11322F0F11D8081B60190E00E94AA118110F5CFF2
S1132300222009F442CEB60180E290E00E94AA1194
S11323102A94F6CFF6018681978102C08FEF9FEF52
S11323202B96E2E10C948812FC01059061507040F8
S11323300110D8F7809590958E0F9F1F0895FC018A
S11323406150704001900110D8F7809590958E0FE0
S11323509F1F08950F931F93CF93DF93FB01238156
S113236021FD03C08FEF9FEF2CC022FF16C04681D2
S11323705781248135814217530744F4A081B181E8
S11323809D012F5F3F4F318320838C9326813781BA
S11323902F5F3F4F3783268314C08B01EC01FB0171
S11323A00084F185E02D0995892BE1F6D801169674
S11323B08D919C911797019617969C938E931697DF
S11323C0CE01DF91CF911F910F910895FA01AA27B1
S11323D0283051F1203181F1E8946F936E7F6E5F64
S11323E07F4F8F4F9F4FAF4FB1E03ED0B4E03CD012
S11323F0670F781F891F9A1FA11D680F791F8A1FF5
S1132400911DA11D6A0F711D811D911DA11D20D05B
S113241009F468943F912AE0269F11243019305D15
S11324203193DEF6CF010895462F4770405D419306
S1132430B3E00FD0C9F7F6CF462F4F70405D4A3353
S113244018F0495D31FD4052419302D0A9F7EACF1B
S1132450B4E0A6959795879577956795BA95C9F74A
S113246000976105710508959B01AC010A2E06943D
S11324705795479537952795BA95C9F7620F731FF6
S1132480841F951FA01D0895A8E1B0E042E050E02C
S11324900C9451120E945F12272F0C946012DC01DD
S11324A0CB01FC01E199FECF06C0FFBBEEBBE09A75
S11324B031960DB20D9241505040B8F70895262F31
S11324C0E199FECF9FBB8EBB2DBB0FB6F894E29A69
S11324D0E19A0FBE019608952F923F924F925F9218
S11324E06F927F928F929F92AF92BF92CF92DF9220
S11324F0EF92FF920F931F93CF93DF93CDB7DEB785
S1132500CA1BDB0B0FB6F894DEBF0FBECDBF099418
S11325102A88398848885F846E847D848C849B846F
S1132520AA84B984C884DF80EE80FD800C811B817D
S1132530AA81B981CE0FD11D0FB6F894DEBF0FBEAC
S10D2540CDBFED010895F894FFCF1C
S113254A1D010500DC0525332E34660056202D2096
S113255A002E004761696E2050203D2000476169C2
S113256A6E2049203D20004761696E2044203D20A9
S113257A002020202020202020203D2000437572A6
S113258A2054656D70203D20005365742054656D98
S113259A70203D20002020202020202020203D00E3
S11325AA4375722054656D70005365742054656DCB
S10525BA7000AB
S9030000FC
