:100000000C942A000C9447000C9447000C9469014E
:100010000C9447000C9447000C9447000C94470044
:100020000C9447000C9447000C9447000C94470034
:100030000C9447000C9447000C9447000C94470024
:100040000C9447000C9447000C9447000C94470014
:100050000C94470011241FBECFE5D4E0DEBFCDBF16
:1000600010E0A0E6B0E0EEE9FBE002C005900D92E2
:10007000A63BB107D9F721E0A6EBB0E001C01D9285
:10008000A332B207E1F70E946B050C94CD050C94E6
:10009000000085BB82B38F7B82BB82B3806882BB4A
:1000A00085E08A95F1F7000082B38F7782BB8FEDF0
:1000B0009EE20197F1F700C00000089585BB82B36E
:1000C000806482BB82B3806882BB85E08A95F1F749
:1000D000000082B38F7782BB8FE99FE00197F1F731
:1000E00000C00000089585BB82B3806482BB82B3E8
:1000F000806882BB85E08A95F1F7000082B38F7734
:1001000082BB8FE99FE00197F1F700C000000895DE
:1001100081B3806C81BB8FEF84BB2FEF89EF90E0C0
:10012000215080409040E1F700C0000088E30E9429
:10013000490025E02A95F1F7000081E00E9449007E
:1001400085E08A95F1F700008EE00E94490095E075
:100150009A95F1F7000080E80E94490087EC90E052
:100160000197F1F700C0000008950F931F93CF93FC
:10017000DF938C01C0E0D0E003C00E9473002196A1
:10018000F801EC0FFD1F80818111F7CFDF91CF9136
:100190001F910F910895CF93DF9300D000D0CDB77A
:1001A000DEB790E8998390EC9A8394E99B8394ED71
:1001B0009C83E82FF0E0319781E090E08C0F9D1F49
:1001C000E80FF91F8081860F81500E9449008FE35C
:1001D0009CE90197F1F700C000000F900F900F907D
:1001E0000F90DF91CF91089581E00E94490080E84F
:1001F0000E94490008950F931F93CF93DF938C01C2
:100200009C013695279536952795ABE7B4E10E947A
:10021000AC05AC01569547959A01ADECBCEC0E943B
:10022000AC059695879596958795969587959C01AB
:10023000220F331F880F991F880F991F880F991F4E
:10024000820F931F9A01281B390BC901805D0E9400
:1002500073009801ADECBCEC0E94AC05EC01D695A6
:10026000C795D695C795D695C7959E010E94AC05B2
:100270009695879596958795969587959C01220FDB
:10028000331F880F991F880F991F880F991F820F9E
:10029000931F9E01281B390BC901805D0E947300CA
:1002A0008EE20E945E00CE01880F991FCC0FDD1FE9
:1002B000CC0FDD1FCC0FDD1FC80FD91FC8018C1B51
:1002C0009D0B805D0E947300DF91CF911F910F9174
:1002D00008951F920F920FB60F9211242F933F9300
:1002E0004F935F936F937F938F939F93AF93BF933E
:1002F000EF93FF938091BA009091BB00A091BC0056
:10030000B091BD000196A11DB11D8093BA009093DC
:10031000BB00A093BC00B093BD0092B380E48927DA
:1003200082BB0E948905FF91EF91BF91AF919F9190
:100330008F917F916F915F914F913F912F910F908E
:100340000FBE0F901F9018952FEF2093C1002093A0
:10035000C000DC01CB01880F991FAA1FBB1F880FAB
:10036000991FAA1FBB1F9C01AD01220F331F441F01
:10037000551F60E074E284EF90E00E948A052150EE
:10038000310989F030BD29B980B5806880BD80B55C
:10039000866080BD8AB188698AB98BB182608BB969
:1003A000789481E0089580E008950F931F93CF9390
:1003B000DF938C01883E23E0920778F19C0136950B
:1003C00027953695279536952795A5ECB0E20E949E
:1003D000AC05AC01529542954F7045275F7045279B
:1003E0009A01ADECBCEC0E94AC059695879596956C
:1003F0008795969587959C01220F331F880F991F2B
:10040000880F991F880F991F820F931F9A01281B2D
:10041000390BC901805D0E945E00980136952795D1
:1004200036952795ABE7B4E10E94AC05AC01569533
:1004300047959A01ADECBCEC0E94AC05969587956A
:1004400096958795969587959C01220F331F880F67
:10045000991F880F991F880F991F820F931F9A0168
:10046000281B390BC901805D0E9473009801ADEC17
:10047000BCEC0E94AC05EC01D695C795D695C79506
:10048000D695C7959E010E94AC0596958795969541
:100490008795969587959C01220F331F880F991F8A
:1004A000880F991F880F991F820F931F9E01281B89
:1004B000390BC901805D0E9473008EE20E945E00CC
:1004C000CE01880F991FCC0FDD1FCC0FDD1FCC0F85
:1004D000DD1FC80FD91FC8018C1B9D0B805D0E94BA
:1004E000730080E20E945E00DF91CF911F910F9117
:1004F0000895CF93CA99FDC1CB99FBC10E94F40026
:100500002FEF80E792E0215080409040E1F700C05B
:100510000000CA9902C0CB9BFCCF61E082E00E9440
:10052000CB008CE690E00E94B50080E30E9473004F
:1005300081E790E00E94B50081E30E94730081E7AB
:1005400090E00E94B50086E30E94730061E081E0C4
:100550000E94CB0083E790E00E94B5008091640088
:10056000909165000E94D501C0E020E062C0CA9968
:100570002CC0C1E0C20F8091640090916500820F91
:10058000911D019690936500809364008D349D4188
:1005900030F08CE49DE190936500809364006AE004
:1005A00081E00E94CB0080916400909165000E94E0
:1005B000D5018FEF94E32CE0815090402040E1F78B
:1005C00000C000002C2FC0E030C0CB992EC02C2FD3
:1005D00030E0255F3F4F80916400909165002817BF
:1005E000390748F48C1B910901979093650080931B
:1005F0006400CF5F06C08AE090E09093650080932E
:1006000064006AE081E00E94CB00809164009091D8
:1006100065000E94D5018FEF94E32CE0815090405B
:100620002040E1F700C0000020E0CA9920E0CB990B
:10063000C0E0C9999CCF609164007091650086E923
:1006400090E00E94BB058FEF90E722E08150904040
:100650002040E1F700C00000C99BFECF61E081E0CF
:100660000E94CB008DE790E00E94B5008091B80019
:100670009091B9000E94D501C0E020E060C0CA9905
:100680002CC0C1E0C20F8091B8009091B900820FD8
:10069000911D01969093B9008093B800853F9140D9
:1006A00030F084EF91E09093B9008093B8006AE055
:1006B00081E00E94CB008091B8009091B9000E9427
:1006C000D5018FEF94E32CE0815090402040E1F77A
:1006D00000C000002C2FC0E02EC0CB992CC02C2FC6
:1006E00030E02F5F3F4F8091B8009091B9002817FC
:1006F000390748F48C1B910901979093B9008093B6
:10070000B800CF5F04C01092B9001092B8006AE040
:1007100081E00E94CB008091B8009091B9000E94C6
:10072000D5018FEF94E32CE0815090402040E1F719
:1007300000C0000020E0CA9920E0CB99C0E0C99930
:100740009ECF6091B8007091B9008AEA90E00E9453
:10075000BB058FEF94E32CE0815090402040E1F7FF
:1007600000C00000C99BFECF61E081E00E94CB0089
:1007700087E890E00E94B50080916200909163004C
:100780000E94D501C0E020E060C0CA992CC0C1E041
:10079000C20F8091620090916300820F911D0196BB
:1007A0009093630080936200853F914030F084EF26
:1007B00091E090936300809362006AE081E00E9480
:1007C000CB0080916200909163000E94D5018FEF71
:1007D00094E32CE0815090402040E1F700C00000FD
:1007E0002C2FC0E02EC0CB992CC02C2F30E02F5FD7
:1007F0003F4F80916200909163002817390748F4B9
:100800008C1B910901979093630080936200CF5FE6
:1008100004C01092B9001092B8006AE081E00E9412
:10082000CB0080916200909163000E94D5018FEF10
:1008300094E32CE0815090402040E1F700C000009C
:1008400020E0CA9920E0CB99C0E0C9999ECF609181
:100850006200709163008EEB90E00E94BB058FEF09
:1008600094E32CE0815090402040E1F700C000006C
:10087000C99BFECF8091B6009091B700892BE9F01B
:1008800061E081E00E94CB0081E990E00E94B50028
:1008900080916000909161000E94FB0061E082E025
:1008A0000E94CB0081E990E00E94B50080911E017A
:1008B00090911F010E94FB001CC061E081E00E943A
:1008C000CB008DE990E00E94B5008091600090918E
:1008D00061000E94FB0061E082E00E94CB0089EA97
:1008E00090E00E94B50080911E0190911F010E942E
:1008F000FB00C999ADC08FEF90E722E08150904096
:100900002040E1F700C00000CA9902C0CB9BFCCF99
:100910006CE082E00E94CB008091600090916100C9
:100920000E94D50160E182E00E94CB008CE30E942E
:100930007300C0E020E070C0CA9933C0C1E0C20FAC
:100940008091600090916100820F911D01969093BB
:10095000610080936000833C914030F082EC91E034
:1009600090936100809360006CE082E00E94CB0075
:1009700080916000909161000E94D50160E182E069
:100980000E94CB008CE30E9473008FEF94E32CE075
:10099000815090402040E1F700C000002C2FC0E0C3
:1009A00037C0CB9935C02C2F30E029563F4F80916E
:1009B0006000909161002817390748F48C1B910959
:1009C00001979093610080936000CF5F06C086E935
:1009D00090E090936100809360006CE082E00E9460
:1009E000CB0080916000909161000E94D50160E190
:1009F00082E00E94CB008CE30E9473008FEF94E3AF
:100A00002CE0815090402040E1F700C0000020E041
:100A1000CA9920E0CB99C0E0CC998ECF609160005C
:100A20007091610082E890E00E94BB058FEF90E733
:100A300022E0815090402040E1F700C00000CC9BB4
:100A4000FECF60E182E00E94CB0080E20E94730052
:100A5000CF9108958DE191E09093610080936000C3
:100A60006DE171E082E890E00E94BB058CED95E0BD
:100A700090936500809364006CED75E086E990E0EA
:100A80000E94BB051092B9001092B80060E070E0BF
:100A90008AEA90E00E94BB0585E090E090936300B5
:100AA0008093620065E070E08EEB90E00E94BB05F1
:100AB0001092B7001092B6006091B6007091B70026
:100AC00082ED90E00E94BB0565EC7DE18EE690E052
:100AD0000E94BB0508952FEF80E792E021508040EF
:100AE0009040E1F700C000008AB3817E8ABB8BB3DF
:100AF0008E618BBB0E942A0560E072EC81E090E081
:100B00000E94A4018823C1F30E9488000E947902F8
:100B1000FDCF0895A1E21A2EAA1BBB1BFD010DC03B
:100B2000AA1FBB1FEE1FFF1FA217B307E407F5079D
:100B300020F0A21BB30BE40BF50B661F771F881F79
:100B4000991F1A9469F760957095809590959B010F
:100B5000AC01BD01CF010895A29FB001B39FC001B8
:100B6000A39F700D811D1124911DB29F700D811DD9
:100B70001124911D08950E94C005272F0C94C105D2
:100B8000262FE199FECF9FBB8EBB2DBB0FB6F894ED
:0E0B9000E29AE19A0FBE01960895F894FFCF05
:100B9E001D010500DC0525332E34660056202D2060
:100BAE00002E004761696E2050203D20004761698C
:100BBE006E2049203D20004761696E2044203D2073
:100BCE00002020202020202020203D20005365746E
:100BDE002054656D70203D20004375722054656D64
:060BEE0070203D20000014
:00000001FF
