:100000000C942A000C9447000C9447000C94520165
:100010000C9447000C9447000C9447000C94470044
:100020000C9447000C9447000C9447000C94470034
:100030000C9447000C9447000C9447000C94470024
:100040000C9447000C9447000C9447000C94470014
:100050000C94470011241FBECFE5D4E0DEBFCDBF16
:1000600010E0A0E6B0E0ECE7FAE002C005900D92E7
:10007000A239B107D9F721E0A2E9B0E001C01D9291
:10008000A630B207E1F70E9481020C943C050C9463
:10009000000085BB82B38F7B82BB82B3806882BB4A
:1000A000000082B38F7782BB8DEE92E00197F1F76B
:1000B00000C00000089585BB82B3806482BB82B318
:1000C000806882BB000082B38F7782BB89EF90E0AB
:1000D0000197F1F700C00000089581B3806C81BBE7
:1000E0008FEF84BB87E893E10197F1F700C0000030
:1000F00088E30E9449008CE00E94490086E00E944B
:10010000490081E00E94490080E80E94490090E196
:100110009A95F1F700C008950F931F93CF93DF9343
:100120008C01C0E0D0E003C00E945B002196F80182
:10013000EC0FFD1F80818111F7CFDF91CF911F91CF
:100140000F910895CF93DF93EA01811108C06031C8
:1001500030F4862F8F7080680E94490009C081307A
:1001600039F4603128F4862F8F70806C0E9449002A
:10017000CE010E948C00DF91CF910895811108C0BB
:10018000603130F4862F8F7080680E944900089596
:10019000813039F4603128F4862F8F70806C0E9492
:1001A000490008950F931F93CF93DF9320E030E031
:1001B00048EC52E40E947F040E94BB03EB01CB0198
:1001C00068EE73E00E94EC0480E3860F0E945B00FF
:1001D000CE0164E670E00E94EC04CB010AE010E07E
:1001E000B8010E94EC04805D0E945B008EE20E94D8
:1001F0005B00CE01B8010E94EC04C82FCB01B8010E
:100200000E94EC04805D0E945B0080E38C0F0E94E2
:100210005B00DF91CF911F910F91089587B38860A4
:1002200087BB83B78A6083BF83B78E7E83BF12BECE
:100230007894089581B3806281BB8FEF90E097BD81
:1002400086BD8FB58E7F8FBD8FB582608FBD8EB519
:100250008B7F8EBD8EB58B618EBD8FB58F7B8FBD35
:100260001BBC1ABC1DBC1CBC7894089581B3806271
:1002700081BB8FEF90E097BD86BD8FB58E7F8FBD20
:100280008FB582608FBD8EB58B7F8EBD8EB58B6135
:100290008EBD8FB58F7B8FBD1BBC1ABC1DBC1CBC1B
:1002A000789408951F920F920FB60F9211242F93F6
:1002B0003F934F935F936F937F938F939F93AF93EE
:1002C000BF93EF93FF938091930090919400A0913E
:1002D0009500B09196000196A11DB11D80939300E9
:1002E00090939400A0939500B09396000E944803C9
:1002F000FF91EF91BF91AF919F918F917F916F91FE
:100300005F914F913F912F910F900FBE0F901F90D3
:100310001895609193007091940080919500909150
:10032000960008952FEF20939A0020939900672B51
:10033000682B692BC9F080E190E09093980080933E
:10034000970010BC8091970089B980B5806880BD06
:1003500080B5866080BD8AB188698AB98BB18260B8
:100360008BB9789481E0089580E00895CF93DF936E
:100370008EE690E00E941405853C9D4109F082C004
:1003800082E890E00E941405EC019093F6008093BF
:10039000F50086E990E00E94140590930501809392
:1003A00004018AEA90E00E9414059093FA00809379
:1003B000F9008EEB90E00E94140590930001809369
:1003C000FF0082ED90E00E941405909361008093FD
:1003D0006000C659D109CD32D14060F08DE191E085
:1003E0009093F6008093F5006DE171E082E890E073
:1003F0000E941A0580910401909105018F3E924060
:1004000060F08AE090E090930501809304016AE037
:1004100070E086E990E00E941A058091F9009091C1
:10042000FA00C297833C914050F01092FA0010926B
:10043000F90060E070E08AEA90E00E941A0580917D
:10044000FF0090910001853F914050F01092000113
:100450001092FF0060E070E08EEB90E00E941A05C1
:100460008091600090916100029708F447C010925B
:1004700061001092600060E070E082ED90E00E9408
:100480001A053CC08DE191E09093F6008093F50051
:100490008AE090E090930501809304011092FA00A5
:1004A0001092F900109200011092FF00109261006A
:1004B000109260006DE171E082E890E00E941A0500
:1004C0006AE070E086E990E00E941A0560E070E062
:1004D0008AEA90E00E941A0560E070E08EEB90E0FE
:1004E0000E941A0560E070E082ED90E00E941A051B
:1004F00065EC7DE18EE690E00E941A05DF91CF91D8
:1005000008952FEF81EE94E0215080409040E1F774
:1005100000C000008AB3817E8ABB8BB38E618BBB27
:100520000E94B60160E072EC81E090E00E949201CE
:100530008823C1F30E946D002FEF80E792E02150E5
:1005400080409040E1F700C00000809160009091F1
:100550006100892B09F14EE650E060E080E00E94E6
:10056000A2004BE750E060E080E00E94A2006BE058
:1005700080E00E94BE006091F5007091F60080E07E
:1005800090E00E94F10320E030E040E251E40E945C
:1005900049030E94D20040C04EE650E060E080E097
:1005A0000E94A2004BE750E060E080E00E94A200C1
:1005B0006BE080E00E94BE006091F5007091F60053
:1005C00080E090E00E94F10320E030E040E251E45E
:1005D0000E9449030E94D2004EE650E060E081E0B4
:1005E0000E94A20045E850E060E081E00E94A20085
:1005F0006BE081E00E94BE006091F5007091F60012
:1006000080E090E00E94F10320E030E040E251E41D
:100610000E9449030E94D2000E940E010E941A010A
:100620000E94360187B3816087BB87B3826087BB36
:1006300087B3846087BB88B38E7F88BB8091F500C9
:100640009091F6009093FE008093FD000E94890136
:100650006B017C010E948901970186010E5C1F4F8E
:100660002F4F3F4F06171707280739079CF70E949F
:1006700089016B017C0180919200882359F31092CB
:1006800092004EE850E06FE080E00E94A200E2CFCE
:1006900008950E945D030C9445040E943E0458F0A6
:1006A0000E94370440F029F45F3F29F00C942E0497
:1006B00051110C9479040C9434040E94560468F38C
:1006C0009923B1F3552391F3951B550BBB27AA270B
:1006D00062177307840738F09F5F5F4F220F331F45
:1006E000441FAA1FA9F335D00E2E3AF0E0E832D00D
:1006F00091505040E695001CCAF72BD0FE2F29D010
:10070000660F771F881FBB1F261737074807AB07E1
:10071000B0E809F0BB0B802DBF01FF2793585F4F56
:100720003AF09E3F510578F00C942E040C94790415
:100730005F3FE4F3983ED4F3869577956795B79538
:10074000F7959F5FC9F7880F911D9695879597F943
:100750000895E1E0660F771F881FBB1F62177307BC
:100760008407BA0720F0621B730B840BBA0BEE1FD1
:1007700088F7E09508950E94C2036894B1110C9423
:10078000790408950E945E0488F09F5798F0B92F6D
:100790009927B751B0F0E1F0660F771F881F991FB6
:1007A0001AF0BA95C9F714C0B13091F00E947804DC
:1007B000B1E008950C947804672F782F8827B85FEC
:1007C00039F0B93FCCF3869577956795B395D9F70E
:1007D0003EF490958095709561957F4F8F4F9F4F18
:1007E0000895E89409C097FB3EF490958095709524
:1007F00061957F4F8F4F9F4F9923A9F0F92F96E96D
:10080000BB279395F695879577956795B795F111E1
:10081000F8CFFAF4BB0F11F460FF1BC06F5F7F4F7E
:100820008F4F9F4F16C0882311F096E911C0772390
:1008300021F09EE8872F762F05C0662371F096E899
:10084000862F70E060E02AF09A95660F771F881F68
:10085000DAF7880F9695879597F9089597F99F6726
:1008600080E870E060E008959FEF80EC0895002438
:100870000A941616170618060906089500240A9405
:1008800012161306140605060895092E0394000C8B
:1008900011F4882352F0BB0F40F4BF2B11F460FF1A
:1008A00004C06F5F7F4F8F4F9F4F089557FD905843
:1008B000440F551F59F05F3F71F04795880F97FB24
:1008C000991F61F09F3F79F08795089512161306DE
:1008D0001406551FF2CF4695F1DF08C0161617060D
:1008E0001806991FF1CF8695710561050894089542
:1008F000E894BB2766277727CB0197F908950E94D4
:1009000092040C9445040E94370438F00E943E047F
:1009100020F0952311F00C942E040C94340411242F
:100920000C9479040E94560470F3959FC1F3950FBF
:1009300050E0551F629FF001729FBB27F00DB11D63
:10094000639FAA27F00DB11DAA1F649F6627B00DF3
:10095000A11D661F829F2227B00DA11D621F739FDC
:10096000B00DA11D621F839FA00D611D221F749FEA
:100970003327A00D611D231F849F600D211D822F31
:10098000762F6A2F11249F5750409AF0F1F0882358
:100990004AF0EE0FFF1FBB1F661F771F881F915085
:1009A0005040A9F79E3F510580F00C942E040C9402
:1009B00079045F3FE4F3983ED4F386957795679585
:1009C000B795F795E7959F5FC1F7FE2B880F911DAF
:1009D0009695879597F9089597FB072E16F400943E
:1009E00007D077FD09D00E94000507FC05D03EF432
:1009F000909581959F4F0895709561957F4F0895CB
:100A0000AA1BBB1B51E107C0AA1FBB1FA617B70734
:100A100010F0A61BB70B881F991F5A95A9F7809550
:100A20009095BC01CD010895A8E1B0E042E050E00E
:100A30000C9421050E942F05272F0C943005DC0112
:100A4000CB01FC01E199FECF06C0FFBBEEBBE09AF3
:100A500031960DB20D9241505040B8F70895262FAF
:100A6000E199FECF9FBB8EBB2DBB0FB6F894E29AE7
:0C0A7000E19A0FBE01960895F894FFCFA4
:100A7C00010045005200460025332E34660020202C
:100A8C0020202020202020203D2000437572722041
:100A9C0054656D70005365742054656D7000272784
:020AAC00000048
:00000001FF
