:100000000C942A000C9447000C9447000C949D011A
:100010000C9447000C9447000C9447000C94470044
:100020000C9447000C9447000C9447000C94470034
:100030000C9447000C9447000C9447000C94470024
:100040000C9447000C9447000C9447000C94470014
:100050000C94470011241FBECFE5D4E0DEBFCDBF16
:1000600010E0A0E6B0E0ECE6F6E002C005900D92EC
:10007000A039B107D9F721E0A0E9B0E001C01D9295
:10008000A130B207E1F70E9461020C9434030C9492
:10009000000085BB82B38F7B82BB82B3806882BB4A
:1000A00025E32A95F1F7000082B38F7782BB8FEFAB
:1000B00096E721E0815090402040E1F700C0000029
:1000C000089585BB82B3806482BB82B3806882BBA3
:1000D00085E38A95F1F7000082B38F7782BB8FE3C7
:1000E0009CE90197F1F700C00000089585BB82B339
:1000F000806482BB82B3806882BB85E38A95F1F716
:10010000000082B38F7782BB8FE39CE90197F1F700
:1001100000C00000089581B3806C81BB8FEF84BB69
:100120002FEF83EC99E0215080409040E1F700C030
:10013000000088E30E94490025E32A95F1F70000BA
:1001400081E00E94490085E38A95F1F700008EE086
:100150000E94490095E39A95F1F7000080E80E941B
:1001600049008FEC97E00197F1F700C00000089577
:100170000F931F93CF93DF938C01C0E0D0E003C0B7
:100180000E9476002196F801EC0FFD1F80818111FD
:10019000F7CFDF91CF911F910F910895CF93DF9308
:1001A00000D000D0CDB7DEB790E8998390EC9A8369
:1001B00094E99B8394ED9C83E82FF0E0319781E0F4
:1001C00090E08C0F9D1FE80FF91F8081860F8150F2
:1001D0000E9449009FEF21EE84E091502040804032
:1001E000E1F700C000000F900F900F900F90DF918B
:1001F000CF9108950F931F93CF93DF938C019C01B0
:100200003695279536952795ABE7B4E10E94130301
:10021000AC01569547959A01ADECBCEC0E941303D6
:100220009695879596958795969587959C01220F2B
:10023000331F880F991F880F991F880F991F820FEE
:10024000931F9A01281B390BC901805D0E9476001B
:100250009801ADECBCEC0E941303EC01D695C79558
:10026000D695C795D695C7959E010E94130396957E
:10027000879596958795969587959C01220F331FB4
:10028000880F991F880F991F880F991F820F931F3E
:100290009E01281B390BC901805D0E9476008EE209
:1002A0000E946100CE01880F991FCC0FDD1FCC0F7B
:1002B000DD1FCC0FDD1FC80FD91FC8018C1B9D0B84
:1002C000805D0E947600DF91CF911F910F9108957C
:1002D00087B3886087BB83B78B6483BF12BE789473
:1002E000089581B3806281BB8FEF90E097BD86BD9A
:1002F0008FB58E738FBD8EB58B7F8EBD8FB58260AF
:100300008FBD8EB58B618EBD1BBC1ABC1DBC1CBCC9
:100310007894089585B58D6085BD8CE783BD89B7D8
:10032000806889BF14BC10929200109293001092C2
:10033000940010929500789408951F920F920FB632
:100340000F9211242F933F934F935F936F937F935B
:100350008F939F93AF93BF93EF93FF9380919200FE
:1003600090919300A0919400B09195000196A11DE9
:10037000B11D8093920090939300A0939400B0934A
:10038000950092B380E4892782BB0E94F002FF911E
:10039000EF91BF91AF919F918F917F916F915F91FD
:1003A0004F913F912F910F900FBE0F901F90189576
:1003B00060919200709193008091940090919500CB
:1003C0000895CF92DF92EF92FF926B017C018FEF45
:1003D0008093990080939800D701C601880F991FD8
:1003E000AA1FBB1F880F991FAA1FBB1F9C01AD012D
:1003F000220F331F441F551F60E074E284EF90E02A
:100400000E94F10221303105A9F0BB27AF2D9E2DAE
:100410008D2D80BDC9B880B5806880BD80B58660EF
:1004200080BD8AB188698AB98BB182608BB97894B2
:1004300081E001C080E0FF90EF90DF90CF900895C1
:100440008DE191E090936100809360006DE171E037
:1004500082E890E00E9422038CED95E09093650085
:10046000809364006CED75E086E990E00E942203C1
:10047000109291001092900060E070E08AEA90E0A3
:100480000E94220385E090E09093630080936200D5
:1004900065E070E08EEB90E00E9422031092F9007C
:1004A0001092F8006091F8007091F90082ED90E0F0
:1004B0000E94220365EC7DE18EE690E00E9422031B
:1004C00008952FEF89E698E1215080409040E1F7B0
:1004D00000C000008AB3817E8ABB8BB38E618BBB68
:1004E0000E94200260E072EC81E090E00E94E10155
:1004F0008823C1F30E948B008091F8009091F9004D
:10050000892BE9F061E081E00E94CE0086E690E070
:100510000E94B80080916000909161000E94FA00F2
:1005200061E082E00E94CE0086E690E00E94B80082
:1005300080916000909161000E94FA0034C061E0F7
:1005400081E00E94CE0082E790E00E94B80061E066
:1005500081E00E94CE008DE790E00E94B8006CE040
:1005600081E00E94CE0080916000909161000E9425
:10057000FA0061E082E00E94CE0082E790E00E94F3
:10058000B80061E082E00E94CE0086E890E00E9420
:10059000B8006CE082E00E94CE00809160009091F3
:1005A00061000E94FA000E9468010E9471010E948D
:1005B0008A0187B3816087BB87B3826087BB87B3BB
:1005C000846087BB88B38E7F88BB809160009091E8
:1005D00061009093FB008093FA000E94D801FFCF46
:1005E0000895A1E21A2EAA1BBB1BFD010DC0AA1F74
:1005F000BB1FEE1FFF1FA217B307E407F50720F08C
:10060000A21BB30BE40BF50B661F771F881F991F06
:100610001A9469F760957095809590959B01AC014F
:10062000BD01CF010895A29FB001B39FC001A39F58
:10063000700D811D1124911DB29F700D811D11241B
:10064000911D08950E942703272F0C942803262F1D
:10065000E199FECF9FBB8EBB2DBB0FB6F894E29AFB
:0C066000E19A0FBE01960895F894FFCFB8
:10066C001D010500DC052020202020202020203D1D
:10067C0020002020202020202020203D00437572C7
:10068C002054656D70005365742054656D700000C6
:00000001FF
