S00E00007468745F55362E73726563DC
S11300000C942A000C9447000C9447000C94FB00B9
S11300100C9447000C9447000C9447000C94470040
S11300200C9447000C9447000C9447000C94470030
S11300300C9447000C9447000C9447000C94470020
S11300400C9447000C9447000C9447000C94470010
S11300500C94470011241FBECFE5D4E0DEBFCDBF12
S113006010E0A0E6B0E0E6EEF8E002C005900D92E4
S1130070A239B107D9F720E0A2E9B0E001C01D928E
S1130080A83FB207E1F70E940F040C9471040C948A
S1130090000085BB82B38F7B82BB82B3806882BB46
S11300A085E08A95F1F7000082B38F7782BB8FEDEC
S11300B09EE20197F1F700C00000089585BB82B36A
S11300C0806482BB82B3806882BB85E08A95F1F745
S11300D0000082B38F7782BB8FE99FE00197F1F72D
S11300E000C00000089585BB82B3806482BB82B3E4
S11300F0806882BB85E08A95F1F7000082B38F7730
S113010082BB8FE99FE00197F1F700C000000895DA
S113011081B3806C81BB8FEF84BB2FEF89EF90E0BC
S1130120215080409040E1F700C0000088E30E9425
S1130130490025E02A95F1F7000081E00E9449007A
S113014085E08A95F1F700008EE00E94490095E071
S11301509A95F1F7000080E80E94490087EC90E04E
S11301600197F1F700C0000008950F931F93CF93F8
S1130170DF938C01C0E0D0E003C00E94730021969D
S1130180F801EC0FFD1F80818111F7CFDF91CF9132
S11301901F910F910895CF93DF9300D000D0CDB776
S11301A0DEB790E8998390EC9A8394E99B8394ED6D
S11301B09C83E82FF0E0319781E090E08C0F9D1F45
S11301C0E80FF91F8081860F81500E9449008FE358
S11301D09CE90197F1F700C000000F900F900F9079
S11301E00F90DF91CF91089581E00E94490080E84B
S11301F00E94490008951F920F920FB60F92112486
S11302002F933F934F935F936F937F938F939F931A
S1130210AF93BF93EF93FF938091960090919700D3
S1130220A0919800B09199000196A11DB11D8093F1
S1130230960090939700A0939800B093990092B37E
S113024080E4892782BB0E942D04FF91EF91BF9126
S1130250AF919F918F917F916F915F914F913F915A
S11302602F910F900FBE0F901F9018952FEF209392
S11302709D0020939C00DC01CB01880F991FAA1FCD
S1130280BB1F880F991FAA1FBB1F9C01AD01220F22
S1130290331F441F551F60E074E284EF90E00E9416
S11302A02E042150310989F030BD29B980B5806808
S11302B080BD80B5866080BD8AB188698AB98BB1FA
S11302C082608BB9789481E0089580E008950F935B
S11302D01F93CF93DF938C01883E23E0920778F13C
S11302E09C01369527953695279536952795A5EC47
S11302F0B0E20E945004AC01529542954F704527DC
S11303005F7045279A01ADECBCEC0E9450049695B1
S1130310879596958795969587959C01220F331F0F
S1130320880F991F880F991F880F991F820F931F99
S11303309A01281B390BC901805D0E945E00980157
S11303403695279536952795ABE7B4E10E9450047E
S1130350AC01569547959A01ADECBCEC0E94500453
S11303609695879596958795969587959C01220FE6
S1130370331F880F991F880F991F880F991F820FA9
S1130380931F9A01281B390BC901805D0E947300D9
S11303909801ADECBCEC0E945004EC01D695C795D5
S11303A0D695C795D695C7959E010E9450049695FB
S11303B0879596958795969587959C01220F331F6F
S11303C0880F991F880F991F880F991F820F931FF9
S11303D09E01281B390BC901805D0E9473008EE2C7
S11303E00E945E00CE01880F991FCC0FDD1FCC0F39
S11303F0DD1FCC0FDD1FC80FD91FC8018C1B9D0B3F
S1130400805D0E94730080E20E945E00DF91CF91C4
S11304101F910F910895CF93CA99BEC1CB99BCC1C6
S11304200E94F4002FEF80E792E02150804090403A
S1130430E1F700C00000CA9902C0CB9BFCCF61E089
S113044082E00E94CB008CE690E00E94B50080E33D
S11304500E94730081E790E00E94B50081E30E944E
S1130460730081E790E00E94B50086E30E94730068
S113047061E081E00E94CB0083E790E00E94B50038
S113048080916400909165000E946701C0E020E0C3
S113049062C0CA992CC0C1E0C20F809164009091DF
S11304A06500820F911D019690936500809364000E
S11304B08D349D4130F08CE49DE1909365008093F0
S11304C064006AE081E00E94CB0080916400909116
S11304D065000E9467018FEF94E32CE08150904007
S11304E02040E1F700C000002C2FC0E030C0CB99C1
S11304F02EC02C2F30E0255F3F4F809164009091F7
S113050065002817390748F48C1B910901979093CB
S1130510650080936400CF5F06C08AE090E090930A
S11305206500809364006AE081E00E94CB008091C2
S11305306400909165000E9467018FEF94E32CE0C2
S1130540815090402040E1F700C0000020E0CA99AB
S113055020E0CB99C0E0C9999CCF60916400709170
S1130560650086E990E00E945F048FEF90E722E047
S1130570815090402040E1F700C00000C99BFECFAD
S113058061E081E00E94CB008DE790E00E94B5001D
S113059080919400909195000E946701C0E020E052
S11305A060C0CA992CC0C1E0C20F809194009091A0
S11305B09500820F911D019690939500809394006D
S11305C0853F914030F084EF91E0909395008093C3
S11305D094006AE081E00E94CB00809194009091A5
S11305E095000E9467018FEF94E32CE081509040C6
S11305F02040E1F700C000002C2FC0E02EC0CB99B2
S11306002CC02C2F30E02F5F3F4F809194009091AD
S113061095002817390748F48C1B9109019790938A
S1130620950080939400CF5F04C0109295001092BF
S113063094006AE081E00E94CB0080919400909144
S113064095000E9467018FEF94E32CE08150904065
S11306502040E1F700C0000020E0CA9920E0CB99D7
S1130660C0E0C9999ECF60919400709195008AEA88
S113067090E00E945F048FEF94E32CE0815090405F
S11306802040E1F700C00000C99BFECF61E081E09B
S11306900E94CB0087E890E00E94B5008091620040
S11306A0909163000E946701C0E020E060C0CA9995
S11306B02CC0C1E0C20F8091620090916300820F50
S11306C0911D01969093630080936200853F914051
S11306D030F084EF91E090936300809362006AE0CD
S11306E081E00E94CB0080916200909163000E949F
S11306F067018FEF94E32CE0815090402040E1F7B4
S113070000C000002C2FC0E02EC0CB992CC02C2F91
S113071030E02F5F3F4F8091620090916300281773
S1130720390748F48C1B91090197909363008093D7
S11307306200CF5F04C010929500109294006AE0AA
S113074081E00E94CB0080916200909163000E943E
S113075067018FEF94E32CE0815090402040E1F753
S113076000C0000020E0CA9920E0CB99C0E0C999FC
S11307709ECF60916200709163008EEB90E00E94C6
S11307805F048FEF94E32CE0815090402040E1F728
S113079000C00000C99BFECFCF9108958DE191E088
S11307A090936100809360006DE171E082E890E0D5
S11307B00E945F048CED95E0909365008093640043
S11307C06CED75E086E990E00E945F04109295005C
S11307D01092940060E070E08AEA90E00E945F0466
S11307E085E090E0909363008093620065E070E0A0
S11307F08EEB90E00E945F0410929300109292009E
S1130800609192007091930082ED90E00E945F04E9
S113081065EC7DE18EE690E00E945F0408952FEF81
S113082080E792E0215080409040E1F700C0000052
S11308308AB3817E8ABB8BB38E618BBB0E94CE034D
S113084060E072EC81E090E00E9436018823C1F3FD
S11308500E9488000E940B02FDCF0895A1E21A2E87
S1130860AA1BBB1BFD010DC0AA1FBB1FEE1FFF1F50
S1130870A217B307E407F50720F0A21BB30BE40BA0
S1130880F50B661F771F881F991F1A9469F76095E7
S11308907095809590959B01AC01BD01CF010895A1
S11308A0A29FB001B39FC001A39F700D811D1124AD
S11308B0911DB29F700D811D1124911D08950E94F8
S11308C06404272F0C946504262FE199FECF9FBB67
S11308D08EBB2DBB0FB6F894E29AE19A0FBE019637
S10908E00895F894FFCF17
S11308E61D010500DC0525332E34660056202D2017
S11308F6002E004761696E2050203D200047616943
S11309066E2049203D20004761696E2044203D2029
S10509160000DB
S9030000FC
