S00E00007468745F55362E73726563DC
S11300000C942A000C9447000C9447000C94520161
S11300100C9447000C9447000C9447000C94470040
S11300200C9447000C9447000C9447000C94470030
S11300300C9447000C9447000C9447000C94470020
S11300400C9447000C9447000C9447000C94470010
S11300500C94470011241FBECFE5D4E0DEBFCDBF12
S113006010E0A0E6B0E0E4E8FAE002C005900D92EA
S1130070A839B107D9F721E0A8E9B0E001C01D9281
S1130080A830B207E1F70E9485020C9440050C9455
S1130090000085BB82B38F7B82BB82B3806882BB46
S11300A0000082B38F7782BB8DEE92E00197F1F767
S11300B000C00000089585BB82B3806482BB82B314
S11300C0806882BB000082B38F7782BB89EF90E0A7
S11300D00197F1F700C00000089581B3806C81BBE3
S11300E08FEF84BB87E893E10197F1F700C000002C
S11300F088E30E9449008CE00E94490086E00E9447
S1130100490081E00E94490080E80E94490090E192
S11301109A95F1F700C008950F931F93CF93DF933F
S11301208C01C0E0D0E003C00E945B002196F8017E
S1130130EC0FFD1F80818111F7CFDF91CF911F91CB
S11301400F910895CF93DF93EA01811108C06031C4
S113015030F4862F8F7080680E94490009C0813076
S113016039F4603128F4862F8F70806C0E94490026
S1130170CE010E948C00DF91CF910895811108C0B7
S1130180603130F4862F8F7080680E944900089592
S1130190813039F4603128F4862F8F70806C0E948E
S11301A0490008950F931F93CF93DF9320E030E02D
S11301B048EC52E40E9483040E94BF03EB01CB018C
S11301C068EE73E00E94F00480E3860F0E945B00F7
S11301D0CE0164E670E00E94F004CB010AE010E076
S11301E0B8010E94F004805D0E945B008EE20E94D0
S11301F05B00CE01B8010E94F004C82FCB01B80106
S11302000E94F004805D0E945B0080E38C0F0E94DA
S11302105B00DF91CF911F910F91089587B38860A0
S113022087BB83B78A6083BF83B78E7E83BF12BECA
S11302307894089581B3806281BB8FEF90E097BD7D
S113024086BD8FB58E7F8FBD8FB582608FBD8EB515
S11302508B7F8EBD8EB58B618EBD8FB58F7B8FBD31
S11302601BBC1ABC1DBC1CBC7894089581B380626D
S113027081BB8FEF90E097BD86BD8FB58E7F8FBD1C
S11302808FB582608FBD8EB58B7F8EBD8EB58B6131
S11302908EBD8FB58F7B8FBD1BBC1ABC1DBC1CBC17
S11302A0789408951F920F920FB60F9211242F93F2
S11302B03F934F935F936F937F938F939F93AF93EA
S11302C0BF93EF93FF9380919B0090919C00A0912A
S11302D09D00B0919E000196A11DB11D80939B00CD
S11302E090939C00A0939D00B0939E000E944C03A9
S11302F0FF91EF91BF91AF919F918F917F916F91FA
S11303005F914F913F912F910F900FBE0F901F90CF
S1130310189560919B0070919C0080919D00909134
S11303209E0008952FEF2093A2002093A100672B35
S1130330682B692BC9F080E190E09093A000809332
S11303409F0010BC80919F0089B980B5806880BDF2
S113035080B5866080BD8AB188698AB98BB18260B4
S11303608BB9789481E0089580E00895CF93DF936A
S11303708EE690E00E941805853C9D4109F084C0FA
S113038082E890E00E941805EC019093630080934A
S1130390620086E990E00E941805909367008093BC
S11303A066008AEA90E00E94180590939A00809370
S11303B099008EEB90E00E9418059093650080935D
S11303C0640082ED90E00E94180590936100809390
S11303D06000C659D109CD32D14060F08DE191E081
S11303E090936300809362006DE171E082E890E095
S11303F00E941E0580916600909167000A978334DD
S11304009D4160F08CED95E09093670080936600C9
S11304106CED75E086E990E00E941E0580919900DC
S113042090919A00853F914050F010929A0010925A
S1130430990060E070E08AEA90E00E941E058091D5
S1130440640090916500853F914060F085E090E004
S1130450909365008093640065E070E08EEB90E01B
S11304600E941E058091600090916100029708F43B
S113047049C0109261001092600060E070E082ED6B
S113048090E00E941E053EC08DE191E090936300D0
S1130490809362008CED95E09093670080936600F2
S11304A010929A001092990085E090E09093650074
S11304B08093640010926100109260006DE171E01D
S11304C082E890E00E941E056CED75E086E990E0FC
S11304D00E941E0560E070E08AEA90E00E941E051A
S11304E065E070E08EEB90E00E941E0560E070E035
S11304F082ED90E00E941E0565EC7DE18EE690E0C1
S11305000E941E05DF91CF9108952FEF81EE94E0B4
S1130510215080409040E1F700C000008AB3817E02
S11305208ABB8BB38E618BBB0E94B60160E072EC18
S113053081E090E00E9492018823C1F30E946D0043
S11305402FEF80E792E0215080409040E1F700C017
S113055000008091600090916100892B09F144E7CB
S113056050E060E080E00E94A20041E850E060E0DA
S113057080E00E94A2006BE080E00E94BE006091D7
S113058062007091630080E090E00E94F50320E037
S113059030E040E251E40E944D030E94D20040C08A
S11305A044E750E060E080E00E94A20041E850E0AF
S11305B060E080E00E94A2006BE080E00E94BE0048
S11305C0609162007091630080E090E00E94F50306
S11305D020E030E040E251E40E944D030E94D2004A
S11305E044E750E060E081E00E94A2004BE850E064
S11305F060E081E00E94A2006BE081E00E94BE0006
S1130600609162007091630080E090E00E94F503C5
S113061020E030E040E251E40E944D030E94D20009
S11306200E940E010E941A010E94360187B3816064
S113063087BB87B3826087BB87B3846087BB88B37B
S11306408E7F88BB80916200909163009093040137
S1130650809303010E9489016B017C010E9489013E
S1130660970186010E5C1F4F2F4F3F4F0617170748
S1130670280739079CF70E9489016B017C0180914E
S11306809800882359F31092980044E950E06FE0F1
S113069080E00E94A200E2CF08950E9461030C94BE
S11306A049040E94420458F00E943B0440F029F49B
S11306B05F3F29F00C94320451110C947D040C9486
S11306C038040E945A0468F39923B1F3552391F333
S11306D0951B550BBB27AA2762177307840738F0AD
S11306E09F5F5F4F220F331F441FAA1FA9F335D00A
S11306F00E2E3AF0E0E832D091505040E695001CBE
S1130700CAF72BD0FE2F29D0660F771F881FBB1F77
S1130710261737074807AB07B0E809F0BB0B802D55
S1130720BF01FF2793585F4F3AF09E3F510578F081
S11307300C9432040C947D045F3FE4F3983ED4F3AC
S1130740869577956795B795F7959F5FC9F7880F55
S1130750911D9695879597F90895E1E0660F771FA7
S1130760881FBB1F621773078407BA0720F0621B38
S1130770730B840BBA0BEE1F88F7E09508950E9463
S1130780C6036894B1110C947D0408950E94620418
S113079088F09F5798F0B92F9927B751B0F0E1F03E
S11307A0660F771F881F991F1AF0BA95C9F714C0EE
S11307B0B13091F00E947C04B1E008950C947C0463
S11307C0672F782F8827B85F39F0B93FCCF3869527
S11307D077956795B395D9F73EF490958095709584
S11307E061957F4F8F4F9F4F0895E89409C097FB01
S11307F03EF490958095709561957F4F8F4F9F4FF4
S11308009923A9F0F92F96E9BB279395F695879537
S113081077956795B795F111F8CFFAF4BB0F11F4FA
S113082060FF1BC06F5F7F4F8F4F9F4F16C08823A1
S113083011F096E911C0772321F09EE8872F762FD7
S113084005C0662371F096E8862F70E060E02AF018
S11308509A95660F771F881FDAF7880F9695879504
S113086097F9089597F99F6780E870E060E008952C
S11308709FEF80EC089500240A94161617061806B4
S11308800906089500240A94121613061406050690
S11308900895092E0394000C11F4882352F0BB0F21
S11308A040F4BF2B11F460FF04C06F5F7F4F8F4F84
S11308B09F4F089557FD9058440F551F59F05F3FBF
S11308C071F04795880F97FB991F61F09F3F79F06E
S11308D087950895121613061406551FF2CF4695F0
S11308E0F1DF08C0161617061806991FF1CF869572
S11308F07105610508940895E894BB276627772756
S1130900CB0197F908950E9496040C9449040E941F
S11309103B0438F00E94420420F0952311F00C941B
S113092032040C94380411240C947D040E945A045B
S113093070F3959FC1F3950F50E0551F629FF0012E
S1130940729FBB27F00DB11D639FAA27F00DB11D47
S1130950AA1F649F6627B00DA11D661F829F2227D0
S1130960B00DA11D621F739FB00DA11D621F839F57
S1130970A00D611D221F749F3327A00D611D231F2D
S1130980849F600D211D822F762F6A2F11249F577B
S113099050409AF0F1F088234AF0EE0FFF1FBB1F7E
S11309A0661F771F881F91505040A9F79E3F51053D
S11309B080F00C9432040C947D045F3FE4F3983E81
S11309C0D4F3869577956795B795F795E7959F5FE7
S11309D0C1F7FE2B880F911D9695879597F9089579
S11309E097FB072E16F4009407D077FD09D00E94D8
S11309F0040507FC05D03EF4909581959F4F08951A
S1130A00709561957F4F0895AA1BBB1B51E107C0E8
S1130A10AA1FBB1FA617B70710F0A61BB70B881F8A
S1130A20991F5A95A9F780959095BC01CD01089519
S1130A30A8E1B0E042E050E00C9425050E943305A3
S1130A40272F0C943405DC01CB01FC01E199FECF86
S1130A5006C0FFBBEEBBE09A31960DB20D92415039
S1130A605040B8F70895262FE199FECF9FBB8EBB67
S1130A702DBB0FB6F894E29AE19A0FBE0196089541
S1070A80F894FFCF14
S1130A8401001D010500DC05450052004600253324
S1130A942E346600202020202020202020203D20E9
S1130AA400437572722054656D700053657420544C
S10B0AB4656D700027270000A6
S9030000FC
