S00E00007468745F55362E73726563DC
S11300000C942A000C9447000C9447000C946F0144
S11300100C9447000C9447000C9447000C94470040
S11300200C9447000C9447000C9447000C94470030
S11300300C9447000C9447000C9447000C94470020
S11300400C9447000C9447000C9447000C94470010
S11300500C94470011241FBECFE5D4E0DEBFCDBF12
S113006010E0A0E6B0E0ECEBF4E002C005900D92E5
S1130070A63AB107D9F720E0A6EAB0E001C01D9284
S1130080A93BB207E1F70E94E7010C945C020C94CF
S1130090000085BB82B38F7B82BB82B3806882BB46
S11300A025E32A95F1F7000082B38F7782BB8FEFA7
S11300B096E721E0815090402040E1F700C0000025
S11300C0089585BB82B3806482BB82B3806882BB9F
S11300D085E38A95F1F7000082B38F7782BB8FE3C3
S11300E09CE90197F1F700C00000089585BB82B335
S11300F0806482BB82B3806882BB85E38A95F1F712
S1130100000082B38F7782BB8FE39CE90197F1F7FC
S113011000C00000089581B3806C81BB8FEF84BB65
S11301202FEF83EC99E0215080409040E1F700C02C
S1130130000088E30E94490025E32A95F1F70000B6
S113014081E00E94490085E38A95F1F700008EE082
S11301500E94490095E39A95F1F7000080E80E9417
S113016049008FEC97E00197F1F700C00000089573
S11301700F931F93CF93DF938C01C0E0D0E003C0B3
S11301800E9476002196F801EC0FFD1F80818111F9
S1130190F7CFDF91CF911F910F910895CF93DF9304
S11301A000D000D0CDB7DEB790E8998390EC9A8365
S11301B094E99B8394ED9C83E82FF0E0319781E0F0
S11301C090E08C0F9D1FE80FF91F8081860F8150EE
S11301D00E9449009FEF21EE84E09150204080402E
S11301E0E1F700C000000F900F900F900F90DF9187
S11301F0CF91089581E00E94490080E80E9449005F
S113020008950F931F93CF93DF938C019C01369530
S1130210279536952795ABE7B4E10E943B02AC01E4
S1130220569547959A01ADECBCEC0E943B0296951D
S1130230879596958795969587959C01220F331FF0
S1130240880F991F880F991F880F991F820F931F7A
S11302509A01281B390BC901805D0E947600980120
S1130260ADECBCEC0E943B02EC01D695C795D6954B
S1130270C795D695C7959E010E943B029695879592
S113028096958795969587959C01220F331F880F25
S1130290991F880F991F880F991F820F931F9E0122
S11302A0281B390BC901805D0E9476008EE20E94F2
S11302B06100CE01880F991FCC0FDD1FCC0FDD1F0D
S11302C0CC0FDD1FC80FD91FC8018C1B9D0B805D8F
S11302D00E947600DF91CF911F910F9108951F9294
S11302E00F920FB60F9211242F933F934F935F9366
S11302F06F937F938F939F93AF93BF93EF93FF93EA
S11303008091A8009091A900A091AA00B091AB009F
S11303100196A11DB11D8093A8009093A900A093FC
S1130320AA00B093AB000E943A02FF91EF91BF91F3
S1130330AF919F918F917F916F915F914F913F9179
S11303402F910F900FBE0F901F9018958DE191E0A3
S113035090936100809360006DE171E082E890E029
S11303600E944A028CED95E09093650080936400AE
S11303706CED75E086E990E00E944A021092A700B5
S11303801092A60060E070E08AEA90E00E944A02BF
S113039085E090E0909363008093620065E070E0F4
S11303A08EEB90E00E944A021092B1001092B000CD
S11303B06091B0007091B10082ED90E00E944A0219
S11303C065EC7DE18EE690E00E944A0208958AB3CE
S11303D0817E8ABB8BB38E618BBB0E94A6010E9477
S11303E08B008091B0009091B100892BE1F061E025
S11303F081E00E94CE0086E690E00E94B8008091E1
S11304006000909161000E94010161E082E00E941D
S1130410CE0086E690E00E94B80080916000909142
S113042061000E9401010E94FA00CA9905C082E796
S113043090E00E94B80014C0CB9905C08EE790E00C
S11304400E94B8000DC0C99905C08AE890E00E94D6
S1130450B80006C0CC9904C087E990E00E94B800B7
S11304602FEF87EA91E6215080409040E1F700C0E9
S11304700000D9CF0895A29FB001B39FC001A39FEC
S1130480700D811D1124911DB29F700D811D1124C9
S1130490911D08950E944F02272F0C945002262F7D
S11304A0E199FECF9FBB8EBB2DBB0FB6F894E29AA9
S10F04B0E19A0FBE01960895F894FFCF66
S11304BC1D010500DC052020202020202020203DCB
S11304CC2000494E43207072657373656400444583
S11304DC4320707265737365640050524F472070EB
S11304EC72657373656400454E5445522070726591
S10904FC73736564000047
S9030000FC
