:100000000C942A000C9447000C9447000C949D011A
:100010000C9447000C9447000C9447000C94470044
:100020000C9447000C9447000C9447000C94470034
:100030000C9447000C9447000C9447000C94470024
:100040000C9447000C9447000C9447000C94470014
:100050000C94470011241FBECFE5D4E0DEBFCDBF16
:1000600010E0A0E6B0E0EEEAF7E002C005900D92E5
:10007000A639B107D9F721E0A6E9B0E001C01D9289
:10008000A930B207E1F70E94DC020C94D5030C946E
:10009000000085BB82B38F7B82BB82B3806882BB4A
:1000A00025E32A95F1F7000082B38F7782BB8FEFAB
:1000B00096E721E0815090402040E1F700C0000029
:1000C000089585BB82B3806482BB82B3806882BBA3
:1000D00085E38A95F1F7000082B38F7782BB8FE3C7
:1000E0009CE90197F1F700C00000089585BB82B339
:1000F000806482BB82B3806882BB85E38A95F1F716
:10010000000082B38F7782BB8FE39CE90197F1F700
:1001100000C00000089581B3806C81BB8FEF84BB69
:100120002FEF83EC99E0215080409040E1F700C030
:10013000000088E30E94490025E32A95F1F70000BA
:1001400081E00E94490085E38A95F1F700008EE086
:100150000E94490095E39A95F1F7000080E80E941B
:1001600049008FEC97E00197F1F700C00000089577
:100170000F931F93CF93DF938C01C0E0D0E003C0B7
:100180000E9476002196F801EC0FFD1F80818111FD
:10019000F7CFDF91CF911F910F910895CF93DF9308
:1001A00000D000D0CDB7DEB790E8998390EC9A8369
:1001B00094E99B8394ED9C83E82FF0E0319781E0F4
:1001C00090E08C0F9D1FE80FF91F8081860F8150F2
:1001D0000E9449009FEF21EE84E091502040804032
:1001E000E1F700C000000F900F900F900F90DF918B
:1001F000CF9108950F931F93CF93DF938C019C01B0
:100200003695279536952795ABE7B4E10E94B40360
:10021000AC01569547959A01ADECBCEC0E94B40335
:100220009695879596958795969587959C01220F2B
:10023000331F880F991F880F991F880F991F820FEE
:10024000931F9A01281B390BC901805D0E9476001B
:100250009801ADECBCEC0E94B403EC01D695C795B7
:10026000D695C795D695C7959E010E94B4039695DD
:10027000879596958795969587959C01220F331FB4
:10028000880F991F880F991F880F991F820F931F3E
:100290009E01281B390BC901805D0E9476008EE209
:1002A0000E946100CE01880F991FCC0FDD1FCC0F7B
:1002B000DD1FCC0FDD1FC80FD91FC8018C1B9D0B84
:1002C000805D0E947600DF91CF911F910F9108957C
:1002D00087B3886087BB83B78B6483BF12BE789473
:1002E000089581B3806281BB8FEF90E097BD86BD9A
:1002F0008FB58E738FBD8EB58B7F8EBD8FB58260AF
:100300008FBD8EB58B618EBD1BBC1ABC1DBC1CBCC9
:100310007894089585B58D6085BD8CE783BD89B7D8
:10032000806889BF14BC10929E0010929F001092AA
:10033000A0001092A100789408951F920F920FB61A
:100340000F9211242F933F934F935F936F937F935B
:100350008F939F93AF93BF93EF93FF9380919E00F2
:1003600090919F00A091A000B091A1000196A11DC5
:10037000B11D80939E0090939F00A093A000B09326
:10038000A10092B380E4892782BB0E949103FF9170
:10039000EF91BF91AF919F918F917F916F915F91FD
:1003A0004F913F912F910F900FBE0F901F90189576
:1003B00060919E0070919F008091A0009091A1009B
:1003C00008952FEF2093A5002093A400DC01CB011A
:1003D000880F991FAA1FBB1F880F991FAA1FBB1F39
:1003E0009C01AD01220F331F441F551F60E078E6CA
:1003F00089E899E00E9492032150310989F030BDCB
:1004000029B980B5806880BD80B5866080BD8AB11D
:1004100088698AB98BB182608BB9789481E008953C
:1004200080E00895CF93DF9386E391E09093990065
:100430008093980088E191E09093070180930601F2
:10044000C0919800D0919900C03320E3D20779F48D
:1004500080919A0090919B00892B09F469C060E11A
:1004600081E00E94CE0085E40E94760061C0CE014A
:100470008A5F91098D32914078F080919A00909135
:100480009B00892B09F454C060E181E00E94CE00FA
:1004900082E50E9476004CC0C43081E0D80720F08D
:1004A000CD3221E0D20708F180919A0090919B0013
:1004B000892B39F060E181E00E94CE0086E40E9441
:1004C00076008091000190910101019690930101C5
:1004D000809300010B9760F11092010110920001CE
:1004E000D0930701C093060123C01092010110921E
:1004F000000180919A0090919B00892B39F060E176
:1005000081E00E94CE008BE40E947600D093070128
:10051000C0930601D0930501C09304016CE082E012
:100520000E94CE0080910401909105010E94FA0082
:10053000DF91CF9108958DE191E0909361008093D8
:1005400060006DE171E082E890E00E94C3038CEDF1
:1005500095E090936500809364006CED75E086E90A
:1005600090E00E94C30310929D0010929C0060E0F6
:1005700070E08AEA90E00E94C30385E090E09093E7
:1005800063008093620065E070E08EEB90E00E9473
:10059000C30310929B0010929A0060919A00709190
:1005A0009B0082ED90E00E94C30365EC7DE18EE646
:1005B00090E00E94C30308952FEF89E698E121504F
:1005C00080409040E1F700C000008AB3817E8ABB82
:1005D0008BB38E618BBB0E949B0260E072EC81E06A
:1005E00090E00E94E1018823C1F30E948B0080917A
:1005F0009A0090919B00892BE9F061E081E00E94D4
:10060000CE008CE690E00E94B8008091600090914E
:1006100061000E94FA0061E082E00E94CE008CE658
:1006200090E00E94B80080916000909161000E946B
:10063000FA0034C061E081E00E94CE0088E790E0DB
:100640000E94B80061E081E00E94CE0083E890E063
:100650000E94B8006CE081E00E94CE0080916000B2
:10066000909161000E94FA0061E082E00E94CE0059
:1006700088E790E00E94B80061E082E00E94CE002E
:100680008CE890E00E94B8006CE082E00E94CE000E
:1006900080916000909161000E94FA000E946801C0
:1006A0000E9471010E948A0187B3816087BB87B372
:1006B000826087BB87B3846087BB88B38E7F88BB2B
:1006C00080916000909161009093050180930401F6
:1006D0000E94D8016B017C010E94D801970186011C
:1006E0000E5C1F4F2F4F3F4F06171707280739077C
:1006F0009CF70E94D8016B017C018091960090913B
:100700009700892B49F310929700109296000E944F
:10071000120260E181E00E94CE0080E20E94760039
:10072000DBCF0895A1E21A2EAA1BBB1BFD010DC051
:10073000AA1FBB1FEE1FFF1FA217B307E407F50791
:1007400020F0A21BB30BE40BF50B661F771F881F6D
:10075000991F1A9469F760957095809590959B0103
:10076000AC01BD01CF010895A29FB001B39FC001AC
:10077000A39F700D811D1124911DB29F700D811DCD
:100780001124911D08950E94C803272F0C94C903BA
:10079000262FE199FECF9FBB8EBB2DBB0FB6F894E1
:0E07A000E29AE19A0FBE01960895F894FFCFF9
:1007AE001D010500DC0525332E3466002020202097
:1007BE0020202020203D200020202020202020202E
:1007CE00203D004375722054656D70005365742092
:0607DE0054656D7000007F
:00000001FF
