:100000000C942A000C9447000C9447000C94B70100
:100010000C9447000C9447000C9447000C94470044
:100020000C9447000C9447000C9447000C94250254
:100030000C9447000C9447000C9447000C94470024
:100040000C9447000C9447000C9447000C94470014
:100050000C94470011241FBECFE5D4E0DEBFCDBF16
:1000600010E0A0E6B0E0E4E5F5E202C005900D92F4
:10007000A23DB107D9F721E0A2EDB0E001C01D9289
:10008000A235B207E1F70E944C0C0C94A8120C9414
:10009000000085BB82B38F7B82BB82B3806882BB4A
:1000A00085E08A95F1F7000082B38F7782BB8FEDF0
:1000B0009EE20197F1F700C00000089585BB82B36E
:1000C000806482BB82B3806882BB85E08A95F1F749
:1000D000000082B38F7782BB8FE99FE00197F1F731
:1000E00000C00000089585BB82B3806482BB82B3E8
:1000F000806882BB85E08A95F1F7000082B38F7734
:1001000082BB8FE99FE00197F1F700C000000895DE
:1001100081B3806C81BB8FEF84BB2FEF89EF90E0C0
:10012000215080409040E1F700C0000088E30E9429
:10013000490025E02A95F1F7000081E00E9449007E
:1001400085E08A95F1F700008EE00E94490095E075
:100150009A95F1F7000080E80E94490087EC90E052
:100160000197F1F700C0000008950F931F93CF93FC
:10017000DF938C01C0E0D0E003C00E9473002196A1
:10018000F801EC0FFD1F80818111F7CFDF91CF9136
:100190001F910F910895CF93DF9300D000D0CDB77A
:1001A000DEB790E8998390EC9A8394E99B8394ED71
:1001B0009C83E82FF0E0319781E090E08C0F9D1F49
:1001C000E80FF91F8081860F81500E9449008FE35C
:1001D0009CE90197F1F700C000000F900F900F907D
:1001E0000F90DF91CF91089581E00E94490080E84F
:1001F0000E94490008950F931F93CF93DF938C01C2
:100200009C013695279536952795ABE7B4E10E947A
:10021000870FAC01569547959A01ADECBCEC0E9456
:10022000870F9695879596958795969587959C01C6
:10023000220F331F880F991F880F991F880F991F4E
:10024000820F931F9A01281B390BC901805D0E9400
:1002500073009801ADECBCEC0E94870FEC01D695C1
:10026000C795D695C795D695C7959E010E94870FCD
:100270009695879596958795969587959C01220FDB
:10028000331F880F991F880F991F880F991F820F9E
:10029000931F9E01281B390BC901805D0E947300CA
:1002A0008EE20E945E00CE01880F991FCC0FDD1FE9
:1002B000CC0FDD1FCC0FDD1FC80FD91FC8018C1B51
:1002C0009D0B805D0E947300DF91CF911F910F9174
:1002D000089587B3886087BB83B78B6483BF12BEE2
:1002E0007894089583B7806283BF12BE089583B760
:1002F0008F7C83BF88B3877F88BB089581B380627A
:1003000081BB8FEF90E097BD86BD8FB58E738FBD9B
:100310008EB58B7F8EBD8FB582608FBD8EB58B61A4
:100320008EBD1BBC1ABC1DBC1CBC789408958FB537
:1003300080688FBD1DBC1CBC08958FB58F738FBDA9
:1003400082B38F7D82BB089585B58D6085BD8CE7B6
:1003500083BD89B7806889BF14BC1092E9001092F0
:10036000EA001092EB001092EC00789408951F922E
:100370000F920FB60F9211242F933F934F935F93D9
:100380006F937F938F939F93AF93BF93EF93FF935D
:100390008091E9009091EA00A091EB00B091EC000F
:1003A0000196A11DB11D8093E9009093EA00A093EE
:1003B000EB00B093EC000E94030DFF91EF91BF9111
:1003C000AF919F918F917F916F915F914F913F91ED
:1003D0002F910F900FBE0F901F9018956091E9001C
:1003E0007091EA008091EB009091EC0008952FEF5E
:1003F0002093F0002093EF00DC01CB01880F991FC0
:10040000AA1FBB1F880F991FAA1FBB1F9C01AD010C
:10041000220F331F441F551F60E074E284EF90E009
:100420000E94650F2150310971F08AB188698AB93B
:1004300080B5866880BD8BB182608BB929B930BD2B
:10044000789481E0089580E008951F920F920FB68E
:100450000F9211242F933F934F938F939F93EF937A
:10046000FF934CB18091F000893521F48091EF0029
:10047000882371F08091F000082E000C990B0196F2
:100480002091EF00022E000C330B8217930759F4D2
:100490008091EF008F5F8093EF008091EF008A35AD
:1004A00011F41092EF008091F000893519F4109248
:1004B000F00005C08091F0008F5F8093F000E09124
:1004C000F0000E2E000CFF0BEF50FF4F4083809189
:1004D000EF008F3F11F41092EF00FF91EF919F9189
:1004E0008F914F913F912F910F900FBE0F901F90C2
:1004F00018958091EF008F3F11F41092EF00E0917A
:10050000EF000E2E000CFF0BEF50FF4F808120916B
:10051000EF009091F000291306C09FEF9093F00038
:100520009093EF0008959091EF009F5F9093EF00FC
:100530009091EF009A3511F41092EF000895809198
:10054000EF008F3FD1F09091EF008091F00098176D
:100550003CF48091F0009091EF00891B8F5F08952B
:100560009091EF008091F00089174CF48091F00099
:100570009091EF00891B855A089580E0089581E0ED
:1005800008950F931F93CF93DF93CDB7DEB72A97CC
:100590000FB6F894DEBF0FBECDBF61E081E00E94D0
:1005A000CB0080915101813011F0833091F58CB7EF
:1005B00099E2899F812D11241DEC82958F70805DB9
:1005C0000E9473008CB7819F812D1124869586959A
:1005D0008695819F912D1124969596959695990FC4
:1005E000292F220F220F920F891B805D0E9473001A
:1005F0008CB7819F112D1124169516951695110F04
:10060000912F990F990F190F811B805D0E94730024
:1006100071C02AB53BB53695279536952795ABE73A
:10062000B4E10E94870FAC01569547959A01ADEC55
:10063000BCEC0E94870F9695879596958795969521
:1006400087959C01220F331F880F991F880F991FD0
:10065000880F991F820F931F9A01281B390BC9011C
:10066000805D0E9473002AB53BB5ADECBCEC0E94E6
:10067000870FAC01569547955695479556954795E2
:100680009A010E94870F96958795969587959695DE
:1006900087959C01220F331F880F991F880F991F80
:1006A000880F991F820F931F9A01281B390BC901CC
:1006B000805D0E9473004AB55BB59A01ADECBCEC5D
:1006C0000E94870F9695879596958795969587951D
:1006D0009C01220F331F880F991F880F991F880FC5
:1006E000991F820F931F9A01281B390BC901805D46
:1006F0000E9473008CE20E94730066E081E00E9419
:10070000CB008EE30E94730080915101813039F457
:1007100086E40E94730083E40E94730023C0823049
:1007200039F486E40E94730088E40E9473001AC0C2
:10073000833039F480E50E94730083E40E947300E3
:1007400011C0843039F480E50E94730088E40E946F
:10075000730008C0853031F480E20E94730083E5A5
:100760000E94730061E082E00E94CB008091D9007A
:100770008F938091D8008F938091D7008F93809131
:10078000D6008F9386E690E09F938F938E010F5F44
:100790001F4F1F930F930E94960FC8010E94B50030
:1007A0000FB6F894DEBF0FBECDBF2A960FB6F894F1
:1007B000DEBF0FBECDBFDF91CF911F910F91089586
:1007C0004F925F926F927F928F929F92AF92BF9261
:1007D000CF92DF92EF92FF920F931F93CF93DF930D
:1007E000CDB7DEB760970FB6F894DEBF0FBECDBFB2
:1007F0006D837E838F83988729013A01E982FA828B
:100800000B831C83C601B50120E030E0A9010E94E2
:10081000F80E69877A878B879C87A30192016D8187
:100820007E818F8198850E94270D6B017C0120E0DD
:1008300030E040E85FE30E94940D8823A4F420E0B8
:1008400030E040E85FEBC701B6010E94F30E1816D6
:1008500054F488B3816088BB88B38D7F88BB88B32C
:10086000846088BB09C088B38E7F88BB88B38260F0
:1008700088BB88B38B7F88BB20E030E040E85FEB2B
:10088000C701B6010E94940D8823A4F40E949D0123
:100890008FEF8093E6008CBF1092D6001092D700A5
:1008A0001092D8001092D9000E94720181E08093CA
:1008B000510157C120E030E040E85FE3C701B601D5
:1008C0000E94F30E1816C4F40E9477018FEF90E097
:1008D0009093E1008093E0009BBD8ABD1092D6000A
:1008E0001092D7001092D8001092D9000E94970160
:1008F00082E08093510135C120E030E0A901C701B9
:10090000B6010E94940D882344F4D701C601B05863
:100910008D839E83AF83B88704C0CD82DE82EF8251
:10092000F88629853A854B855C856D817E818F812E
:1009300098850E94F80E2091D6003091D700409102
:10094000D8005091D9000E94280D4B015C016093A2
:10095000D6007093D7008093D8009093D900298156
:100960003A814B815C81CA01B9010E94280D20E0C7
:1009700030E040E251E40E94990D6D877E878F87B9
:10098000988B9B01AC01C501B4010E94F30E1816AF
:100990006CF48D859E85AF85B8898093D600909341
:1009A000D700A093D800B093D90011C020E030E068
:1009B000A901C501B4010E94940D882344F410924A
:1009C000D6001092D7001092D8001092D90020E0E3
:1009D00030E0A90169857A858B859C850E94940DFC
:1009E000811108C01092D6001092D7001092D80042
:1009F0001092D9002091D2003091D3004091D400C0
:100A00005091D500C301B2010E94270D4B015C013A
:100A100020E030E0A9010E94940D882324F4B7FA65
:100A2000B094B7F8B09429813A814B815C816D8193
:100A30007E818F8198850E94F80E2091D60030919A
:100A4000D7004091D8005091D9000E94280D6983A9
:100A50007A838B839C8329853A854B855C85C50188
:100A6000B4010E94F80E9B01AC0169817A818B81EF
:100A70009C810E94270D4B015C0120E030E04FE794
:100A800053E40E94F30E18165CF020E030E04FE7CC
:100A900053ECC501B4010E94940D882354F011C099
:100AA0000F2E812C912CFFE7AF2EF3E4BF2EF02DFB
:100AB00008C00F2E812C912CFFE7AF2EF3ECBF2E38
:100AC000F02DC501B4010E940B0E8B01772324F495
:100AD00000271127061B170B20E030E0A901C701F2
:100AE000B6010E94F30E181684F40E947701802F3D
:100AF000912F9093E1008093E0009BBD8ABD0E94FE
:100B0000970184E0809351012CC020E030E0A901DE
:100B1000C701B6010E94940D88235CF40E949D01D8
:100B20000093E6000CBF0E94720183E080935101A4
:100B300018C01092E6001CBE1092E1001092E00076
:100B40001BBC1ABC1092D6001092D7001092D8008D
:100B50001092D9000E9477010E949D0185E0809348
:100B600051014092D2005092D3006092D400709212
:100B7000D500C701B60160960FB6F894DEBF0FBE70
:100B8000CDBFDF91CF911F910F91FF90EF90DF903C
:100B9000CF90BF90AF909F908F907F906F905F901D
:100BA0004F9008954F925F926F927F92AF92BF9253
:100BB000CF92DF92EF92FF920F931F93CF93DF9329
:100BC000CDB7DEB728970FB6F894DEBF0FBECDBF06
:100BD0002091DC003091DD003A83298320333043BB
:100BE00079F48091DE009091DF00892B09F481C1B6
:100BF00060E181E00E94CB0085E40E94730079C12E
:100C000089819A81865991098139914078F0809142
:100C1000DE009091DF00892B09F46BC160E181E077
:100C20000E94CB0082E50E94730063C18091E200C4
:100C30009091E300009781F19C0124513109498191
:100C40005A814217530720F044968417950720F5E0
:100C50008091DE009091DF00892B39F060E181E026
:100C60000E94CB0086E40E9473008091E400909182
:100C7000E50001969093E5008093E4000B9708F45B
:100C800038C11092E5001092E40089819A81909316
:100C9000E3008093E2002DC11092E5001092E40081
:100CA0008091DE009091DF00892B39F060E181E0D6
:100CB0000E94CB008BE40E94730029813A8130931B
:100CC000E3002093E20030934F0120934E016CE04B
:100CD00081E00E94CB0080914E0190914F010E94D3
:100CE000FB008091DE009091DF00892B09F482C027
:100CF0002091620030916300ADECBCEC0E94870F44
:100D00007C01F694E794F694E794F694E7942091A6
:100D1000E7003091E8000E94870FAC015695479597
:100D200056954795569547952091640030916500FA
:100D30000E94870F3C01769467947694679476942A
:100D4000679420914E0130914F010E94870F969534
:100D5000879596958795969587959E838D83209107
:100D60006000309161000E94870F8C0116950795F5
:100D70001695079516950795BA0180E090E00E94B8
:100D8000410E5B016C01B30180E090E00E94410ED6
:100D900069837A838B839C834D815E81BA0180E075
:100DA00090E00E94410E6D837E838F839887B80107
:100DB00080E090E00E94410E2B013C01B70180E0F1
:100DC00090E00E94410E9F938F937F936F93E980F1
:100DD000FA800B811C812D813E814F815885C30192
:100DE000B2010E94E0030E94C1020F900F900F9089
:100DF0000F907FC02091620030916300ADECBCEC9D
:100E00000E94870F8C0116950795169507951695E4
:100E100007952091E7003091E8000E94870FAC0110
:100E20005695479556954795569547952091640058
:100E3000309165000E94870F9695879596958795C6
:100E4000969587959A83898320914E0130914F0121
:100E50000E94870F3C017694679476946794769409
:100E6000679420916000309161000E94870F2C01EF
:100E7000569447945694479456944794BA0180E008
:100E800090E00E94410E5B016C0129813A81B90119
:100E900080E090E00E94410E69837A838B839C837B
:100EA000B30180E090E00E94410E6D837E838F83CA
:100EB0009887B20180E090E00E94410E2B013C0136
:100EC000B80180E090E00E94410E9F938F937F9342
:100ED0006F93E980FA800B811C812D813E814F81C7
:100EE0005885C301B2010E94E0030F900F900F904C
:100EF0000F9028960FB6F894DEBF0FBECDBFDF91DE
:100F0000CF911F910F91FF90EF90DF90CF90BF9006
:100F1000AF907F906F905F904F9008950F931F93C5
:100F2000CF93DF938C01883E23E0920778F19C01F8
:100F3000369527953695279536952795A5ECB0E2F9
:100F40000E94870FAC01529542954F7045275F7004
:100F500045279A01ADECBCEC0E94870F96958795CA
:100F600096958795969587959C01220F331F880F3C
:100F7000991F880F991F880F991F820F931F9A013D
:100F8000281B390BC901805D0E945E0098013695CF
:100F9000279536952795ABE7B4E10E94870FAC0102
:100FA000569547959A01ADECBCEC0E94870F96953B
:100FB000879596958795969587959C01220F331F67
:100FC000880F991F880F991F880F991F820F931FF1
:100FD0009A01281B390BC901805D0E94730098019A
:100FE000ADECBCEC0E94870FEC01D695C795D69569
:100FF000C795D695C7959E010E94870F96958795B0
:1010000096958795969587959C01220F331F880F9B
:10101000991F880F991F880F991F820F931F9E0198
:10102000281B390BC901805D0E9473008EE20E946B
:101030005E00CE01880F991FCC0FDD1FCC0FDD1F86
:10104000CC0FDD1FC80FD91FC8018C1B9D0B805D05
:101050000E94730080E20E945E00DF91CF911F9199
:101060000F910895CF92DF92EF92FF92CF93CA999A
:1010700004C2CB9902C20E9477010E949D010E9486
:10108000F4002FEF80E792E0215080409040E1F79C
:1010900000C00000CA9902C0CB9BFCCF61E082E097
:1010A0000E94CB008CE690E00E94B50080E30E9495
:1010B000730081E790E00E94B50081E30E94730015
:1010C00081E790E00E94B50086E30E94730061E032
:1010D00081E00E94CB0083E790E00E94B500809100
:1010E0006400909165000E948E07C0E020E062C01D
:1010F000CA992CC0C1E0C20F809164009091650034
:10110000820F911D019690936500809364008D3449
:101110009D4130F08CE49DE19093650080936400E4
:101120006AE081E00E94CB008091640090916500AC
:101130000E948E078FEF94E32CE081509040204076
:10114000E1F700C000002C2FC0E030C0CB992EC0CA
:101150002C2F30E0255F3F4F809164009091650017
:101160002817390748F48C1B910901979093650063
:1011700080936400CF5F06C08AE090E090936500A2
:10118000809364006AE081E00E94CB00809164005B
:10119000909165000E948E078FEF94E32CE08150C0
:1011A00090402040E1F700C0000020E0CA9920E014
:1011B000CB99C0E0C9999CCF6091640070916500A3
:1011C00086E990E00E944F128FEF90E722E0815075
:1011D00090402040E1F700C00000C99BFECF61E0D5
:1011E00081E00E94CB008DE790E00E94B5008091E5
:1011F000E7009091E8000E948E07C0E020E060C008
:10120000CA992CC0C1E0C20F8091E7009091E8001C
:10121000820F911D01969093E8008093E700853F2F
:10122000914030F084EF91E09093E8008093E700E4
:101230006AE081E00E94CB008091E7009091E80095
:101240000E948E078FEF94E32CE081509040204065
:10125000E1F700C000002C2FC0E02EC0CB992CC0BD
:101260002C2F30E02F5F3F4F8091E7009091E800F6
:101270002817390748F48C1B910901979093E800CF
:101280008093E700CF5F04C01092E8001092E7005F
:101290006AE081E00E94CB008091E7009091E80035
:1012A0000E948E078FEF94E32CE081509040204005
:1012B000E1F700C0000020E0CA9920E0CB99C0E02F
:1012C000C9999ECF6091E7007091E8008AEA90E0AA
:1012D0000E944F128FEF94E32CE081509040204009
:1012E000E1F700C00000C99BFECF61E081E00E94F1
:1012F000CB0087E890E00E94B50080916200909159
:1013000063000E948E07C0E020E060C0CA992CC034
:10131000C1E0C20F8091620090916300820F911D25
:1013200001969093630080936200853F914030F076
:1013300084EF91E090936300809362006AE081E023
:101340000E94CB0080916200909163000E948E0702
:101350008FEF94E32CE0815090402040E1F700C0F3
:1013600000002C2FC0E02EC0CB992CC02C2F30E0D9
:101370002F5F3F4F809162009091630028173907DB
:1013800048F48C1B9109019790936300809362004D
:10139000CF5F04C01092E8001092E7006AE081E09D
:1013A0000E94CB0080916200909163000E948E07A2
:1013B0008FEF94E32CE0815090402040E1F700C093
:1013C000000020E0CA9920E0CB99C0E0C9999ECFE7
:1013D00060916200709163008EEB90E00E944F126A
:1013E0008FEF94E32CE0815090402040E1F700C063
:1013F0000000C99BFECF0E94F4008091DE00909116
:10140000DF00892BE9F061E081E00E94CB0081E9F7
:1014100090E00E94B50080914E0190914F010E9492
:10142000FB0061E082E00E94CB0081E990E00E9435
:10143000B50080916000909161000E94FB004CC15A
:1014400061E081E00E94CB008DE990E00E94B50050
:1014500080914E0190914F010E94FB0061E082E07B
:101460000E94CB0089EA90E00E94B5008091600064
:10147000909161000E94FB002FC1C999B0C00E94E9
:1014800077010E949D018FEF90E722E0815090400C
:101490002040E1F700C00000C99BFECF6CE082E075
:1014A0000E94CB0080916000909161000E948E07A5
:1014B00060E182E00E94CB008CE30E947300C0E0F8
:1014C00020E070C0CA9933C0C1E0C20F80916000B3
:1014D00090916100820F911D01969093610080931D
:1014E0006000833C914030F082EC91E09093610089
:1014F000809360006CE082E00E94CB0080916000ED
:10150000909161000E948E0760E182E00E94CB0012
:101510008CE30E9473008FEF94E32CE081509040A5
:101520002040E1F700C000002C2FC0E037C0CB996D
:1015300035C02C2F30E029563F4F809160009091AC
:1015400061002817390748F48C1B91090197909383
:10155000610080936000CF5F06C086E990E09093C1
:101560006100809360006CE082E00E94CB0080917B
:101570006000909161000E948E0760E182E00E940D
:10158000CB008CE30E9473008FEF94E32CE081503A
:1015900090402040E1F700C0000020E0CA9920E020
:1015A000CB99C0E0CC998ECF6091600070916100C2
:1015B00082E890E00E944F128FEF90E722E0815086
:1015C00090402040E1F700C00000CC9BFECF60E1DE
:1015D00082E00E94CB0080E20E9473007DC0C99926
:1015E0007BC00E94EE016B017C018FEF90E722E04F
:1015F000815090402040E1F700C00000C99BFECF21
:101600000E94EE01DC01CB01C296A11DB11DC816DE
:10161000D906EA06FB060CF45FC08091DE009091CB
:10162000DF00892B59F581E090E09093DF008093F3
:10163000DE006091DE007091DF0082ED90E00E949C
:101640004F1261E081E00E94CB0081E990E00E94AE
:10165000B50080914E0190914F010E94FB0061E026
:1016600082E00E94CB0081E990E00E94B500809169
:101670006000909161000E94FB002EC08091DE000E
:101680009091DF00892B41F51092DF001092DE006F
:101690006091DE007091DF0082ED90E00E944F12B9
:1016A00061E081E00E94CB008DE990E00E94B500EE
:1016B00080914E0190914F010E94FB0061E082E019
:1016C0000E94CB0089EA90E00E94B5008091600002
:1016D000909161000E94FB00CF91FF90EF90DF900E
:1016E000CF900895CF93DF938EE690E00E94491249
:1016F000853C9D4109F08DC082E890E00E9449122E
:10170000EC01909361008093600086E990E00E9474
:10171000491290936500809364008AEA90E00E94E9
:1017200049129093E8008093E7008EEB90E00E94CE
:101730004912909363008093620082ED90E00E94D2
:1017400049129093DF008093DE00C659D109CD3253
:10175000D14060F08DE191E0909361008093600052
:101760006DE171E082E890E00E944F128091640088
:10177000909165000A9783349D4160F08CED95E06F
:1017800090936500809364006CED75E086E990E0CD
:101790000E944F128091E7009091E800853F9140B0
:1017A00050F01092E8001092E70060E070E08AEAE2
:1017B00090E00E944F128091620090916300853FFB
:1017C000914060F085E090E0909363008093620028
:1017D00065E070E08EEB90E00E944F128091DE0099
:1017E0009091DF00892B09F454C08091DE00909124
:1017F000DF00019709F44DC01092DF001092DE0067
:101800006091DE007091DF0082ED90E00E944F1247
:1018100040C08DE191E090936100809360006DE1A4
:1018200071E082E890E00E944F128CED95E0909379
:101830006500809364006CED75E086E990E00E949D
:101840004F121092E8001092E70060E070E08AEA20
:1018500090E00E944F1285E090E0909363008093A7
:10186000620065E070E08EEB90E00E944F121092F3
:10187000DF001092DE006091DE007091DF0082EDEB
:1018800090E00E944F1265EC7DE18EE690E00E94B0
:101890004F12DF91CF9108952FEF80E792E0215012
:1018A00080409040E1F700C000008AB3817E8ABB8F
:1018B0008BB38E618BBB0E94720B60E072EC81E097
:1018C00090E00E94F7018823C1F30E948800809174
:1018D000DE009091DF00892BE9F061E081E00E9459
:1018E000CB0081E990E00E94B5008091600090916A
:1018F00061000E94FB0061E082E00E94CB0081E970
:1019000090E00E94B50080916000909161000E947B
:10191000FB0034C061E081E00E94CB0085EB90E0E9
:101920000E94B50061E081E00E94CB0080EC90E075
:101930000E94B5006CE081E00E94CB0080916000C5
:10194000909161000E94FB0061E082E00E94CB0068
:1019500085EB90E00E94B50061E082E00E94CB0040
:1019600089EC90E00E94B5006CE082E00E94CB0020
:1019700080916000909161000E94FB000E946901CB
:101980000E947E010E94A40187B3816087BB87B358
:10199000826087BB87B3846087BB88B38E7F88BB38
:1019A000809160009091610090934F0180934E016F
:1019B0000E94EE016B017C010E94EE0197018601FD
:1019C0000E5C1F4F2F4F3F4F061717072807390789
:1019D000BCF40E94EE016B017C018091DA009091D1
:1019E000DB00892B69F01092DB001092DA000E9474
:1019F000D20560E181E00E94CB0080E20E9473008A
:101A00000E943208D9CF0E949F0280FD0E94790275
:101A10000E949F028230D0F00E94790280934D0193
:101A20000E9479028093500120914D0130E0322FC5
:101A30002227A901482BCA019093DD008093DC0086
:101A400081E090E09093DB008093DA000895505895
:101A5000BB27AA270E943F0D0C94B90E0E94AB0E23
:101A600038F00E94B20E20F039F49F3F19F426F4AA
:101A70000C94A80E0EF4E095E7FB0C94A20EE92F4F
:101A80000E94CA0E58F3BA176207730784079507B6
:101A900020F079F4A6F50C94EC0E0EF4E0950B2EE4
:101AA000BA2FA02D0B01B90190010C01CA01A001B0
:101AB0001124FF27591B99F0593F50F4503E68F10B
:101AC0001A16F040A22F232F342F4427585FF3CF4C
:101AD000469537952795A795F0405395C9F77EF41D
:101AE0001F16BA0B620B730B840BBAF09150A1F066
:101AF000FF0FBB1F661F771F881FC2F70EC0BA0FEC
:101B0000621F731F841F48F4879577956795B79573
:101B1000F7959E3F08F0B0CF9395880F08F099276E
:101B2000EE0F9795879508950E947E0E08F481E048
:101B300008950E94AD0D0C94B90E0E94B20E58F09B
:101B40000E94AB0E40F029F45F3F29F00C94A20EE6
:101B500051110C94ED0E0C94A80E0E94CA0E68F35D
:101B60009923B1F3552391F3951B550BBB27AA2756
:101B700062177307840738F09F5F5F4F220F331F90
:101B8000441FAA1FA9F335D00E2E3AF0E0E832D058
:101B900091505040E695001CCAF72BD0FE2F29D05B
:101BA000660F771F881FBB1F261737074807AB072D
:101BB000B0E809F0BB0B802DBF01FF2793585F4FA2
:101BC0003AF09E3F510578F00C94A20E0C94ED0E65
:101BD0005F3FE4F3983ED4F3869577956795B79584
:101BE000F7959F5FC9F7880F911D9695879597F98F
:101BF0000895E1E0660F771F881FBB1F6217730708
:101C00008407BA0720F0621B730B840BBA0BEE1F1C
:101C100088F7E09508950E94120E6894B1110C9413
:101C2000ED0E08950E94D20E88F09F5798F0B92FBC
:101C30009927B751B0F0E1F0660F771F881F991F01
:101C40001AF0BA95C9F714C0B13091F00E94EC0EA9
:101C5000B1E008950C94EC0E672F782F8827B85FB9
:101C600039F0B93FCCF3869577956795B395D9F759
:101C70003EF490958095709561957F4F8F4F9F4F63
:101C80000895E89409C097FB3EF49095809570956F
:101C900061957F4F8F4F9F4F9923A9F0F92F96E9B8
:101CA000BB279395F695879577956795B795F1112D
:101CB000F8CFFAF4BB0F11F460FF1BC06F5F7F4FCA
:101CC0008F4F9F4F16C0882311F096E911C07723DC
:101CD00021F09EE8872F762F05C0662371F096E8E5
:101CE000862F70E060E02AF09A95660F771F881FB4
:101CF000DAF7880F9695879597F90895990F000858
:101D0000550FAA0BE0E8FEEF16161706E807F907CD
:101D1000C0F012161306E407F50798F0621B730B68
:101D2000840B950B39F40A2661F0232B242B252BE9
:101D300021F408950A2609F4A140A6958FEF811D8C
:101D4000811D089597F99F6780E870E060E008952D
:101D50009FEF80EC089500240A94161617061806C3
:101D60000906089500240A9412161306140605069F
:101D70000895092E0394000C11F4882352F0BB0F30
:101D800040F4BF2B11F460FF04C06F5F7F4F8F4F93
:101D90009F4F089557FD9058440F551F59F05F3FCE
:101DA00071F04795880F97FB991F61F09F3F79F07D
:101DB00087950895121613061406551FF2CF4695FF
:101DC000F1DF08C0161617061806991FF1CF869581
:101DD0007105610508940895E894BB276627772765
:101DE000CB0197F908950E947E0E08F48FEF0895B5
:101DF0000E940B0F0C94B90E0E94AB0E38F00E949B
:101E0000B20E20F0952311F00C94A20E0C94A80EA3
:101E100011240C94ED0E0E94CA0E70F3959FC1F32D
:101E2000950F50E0551F629FF001729FBB27F00D88
:101E3000B11D639FAA27F00DB11DAA1F649F6627DD
:101E4000B00DA11D661F829F2227B00DA11D621F2C
:101E5000739FB00DA11D621F839FA00D611D221FE6
:101E6000749F3327A00D611D231F849F600D211DCA
:101E7000822F762F6A2F11249F5750409AF0F1F04D
:101E800088234AF0EE0FFF1FBB1F661F771F881FB6
:101E900091505040A9F79E3F510580F00C94A20E3E
:101EA0000C94ED0E5F3FE4F3983ED4F3869577955E
:101EB0006795B795F795E7959F5FC1F7FE2B880F5C
:101EC000911D9695879597F90895A1E21A2EAA1B60
:101ED000BB1BFD010DC0AA1FBB1FEE1FFF1FA217DA
:101EE000B307E407F50720F0A21BB30BE40BF50BD7
:101EF000661F771F881F991F1A9469F76095709560
:101F0000809590959B01AC01BD01CF010895A29FE2
:101F1000B001B39FC001A39F700D811D1124911DBD
:101F2000B29F700D811D1124911D0895AEE0B0E0A7
:101F3000ECE9FFE00C947F120D891E8986E08C830A
:101F40001A8309838FEF9FE79E838D83AE01475EDF
:101F50005F4F6F89788DCE0101960E94B80FEF8197
:101F6000F885E00FF11F10822E96E4E00C949B128E
:101F7000ABE0B0E0EEEBFFE00C9471126C017B0182
:101F80008A01FC0117821682838181FFCCC1CE01B8
:101F900001963C01F6019381F70193FD859193FF32
:101FA00081917F01882309F4BAC1853239F493FD08
:101FB000859193FF81917F01853229F4B60190E0EC
:101FC0000E94AF11E7CF912C212C312CFFE1F315AA
:101FD000D8F08B3279F038F4803279F08332A1F482
:101FE000232D20611DC08D3261F0803369F4232DD3
:101FF000216016C0832D8260382EE32DE4603E2ED2
:102000002AC0F32DF8601DC037FC2DC020ED280F2D
:102010002A3040F08E32B9F436FC81C1232D206481
:10202000322E19C036FE06C08AE0989E200D11247B
:10203000922E11C0EAE02E9E200D1124222EF32DA7
:10204000F0623F2E08C08C3621F4832D8068382E34
:1020500002C0883641F4F70193FD859193FF819189
:102060007F018111B3CF982F9F7D9554933028F431
:102070000C5F1F4F9FE399830DC0833631F0833788
:1020800071F0833509F059C021C0F801808189833E
:102090000E5F1F4F88248394912C530113C0280195
:1020A000F2E04F0E511CF801A080B18036FE03C053
:1020B000692D70E002C06FEF7FEFC5010E94A4118F
:1020C0004C018201F32DFF773F2E16C0280122E03C
:1020D000420E511CF801A080B18036FE03C0692D6C
:1020E00070E002C06FEF7FEFC5010E9499114C01B3
:1020F000F32DF0683F2E820133FC1BC0822D90E04F
:1021000088169906B0F4B60180E290E00E94AF1103
:102110002A94F4CFF50137FC859137FE81915F0158
:10212000B60190E00E94AF1121102A9421E0821A9A
:1021300091088114910471F7E8C0843611F0893652
:1021400041F5F80137FE07C060817181828193817A
:102150000C5F1F4F08C060817181072E000C880B37
:10216000990B0E5F1F4FF32DFF763F2E97FF09C08F
:1021700090958095709561957F4F8F4F9F4FF06838
:102180003F2E2AE030E0A3010E94EB11882E861832
:1021900045C0853731F4232D2F7EB22E2AE030E062
:1021A00025C0932D997FB92E8F36C1F018F488354C
:1021B00079F0B5C0803719F0883721F0B0C0E92F29
:1021C000E061BE2EB4FE0DC0FB2DF460BF2E09C031
:1021D00034FE0AC0292F2660B22E06C028E030E067
:1021E00005C020E130E002C020E132E0F801B7FE96
:1021F00007C060817181828193810C5F1F4F06C08F
:102200006081718180E090E00E5F1F4FA3010E940A
:10221000EB11882E8618FB2DFF773F2E36FE0DC062
:10222000232D2E7FA22E891458F434FE0BC032FCCD
:1022300009C0832D8E7EA82E05C0B82CA32C03C008
:10224000B82C01C0B92CA4FE0FC0FE01E80DF11D91
:102250008081803321F49A2D997EA92E09C0A2FE97
:1022600006C0B394B39404C08A2D867809F0B39461
:10227000A3FC11C0A0FE06C0B21488F4280C922C56
:102280009B180EC0B21460F4B60180E290E00E9488
:10229000AF11B394F7CFB21418F42B1802C0982CD6
:1022A000212CA4FE10C0B60180E390E00E94AF1183
:1022B000A2FE17C0A1FC03C088E790E002C088E539
:1022C00090E0B6010CC08A2D867859F0A1FE02C0BC
:1022D0008BE201C080E2A7FC8DE2B60190E00E9493
:1022E000AF11891438F4B60180E390E00E94AF1179
:1022F0009A94F7CF8A94F301E80DF11D8081B6011D
:1023000090E00E94AF118110F5CF222009F442CE57
:10231000B60180E290E00E94AF112A94F6CFF60158
:102320008681978102C08FEF9FEF2B96E2E10C949C
:102330008D12FC010590615070400110D8F7809516
:1023400090958E0F9F1F0895FC0161507040019081
:102350000110D8F7809590958E0F9F1F08950F93C9
:102360001F93CF93DF93FB01238121FD03C08FEFE8
:102370009FEF2CC022FF16C04681578124813581F2
:102380004217530744F4A081B1819D012F5F3F4F55
:10239000318320838C93268137812F5F3F4F378392
:1023A000268314C08B01EC01FB010084F185E02D34
:1023B0000995892BE1F6D80116968D919C91179776
:1023C000019617969C938E931697CE01DF91CF912D
:1023D0001F910F910895FA01AA27283051F1203159
:1023E00081F1E8946F936E7F6E5F7F4F8F4F9F4FA9
:1023F000AF4FB1E03ED0B4E03CD0670F781F891FEB
:102400009A1FA11D680F791F8A1F911DA11D6A0FB8
:10241000711D811D911DA11D20D009F468943F916B
:102420002AE0269F11243019305D3193DEF6CF016A
:102430000895462F4770405D4193B3E00FD0C9F730
:10244000F6CF462F4F70405D4A3318F0495D31FD9D
:102450004052419302D0A9F7EACFB4E0A6959795F0
:10246000879577956795BA95C9F7009761057105C6
:1024700008959B01AC010A2E069457954795379510
:102480002795BA95C9F7620F731F841F951FA01D6A
:102490000895A8E1B0E042E050E00C9456120E948A
:1024A0006412272F0C946512DC01CB01FC01E19929
:1024B000FECF06C0FFBBEEBBE09A31960DB20D9287
:1024C00041505040B8F70895262FE199FECF9FBBA9
:1024D0008EBB2DBB0FB6F894E29AE19A0FBE01961F
:1024E00008952F923F924F925F926F927F928F92B8
:1024F0009F92AF92BF92CF92DF92EF92FF920F9393
:102500001F93CF93DF93CDB7DEB7CA1BDB0B0FB69C
:10251000F894DEBF0FBECDBF09942A883988488859
:102520005F846E847D848C849B84AA84B984C884EF
:10253000DF80EE80FD800C811B81AA81B981CE0FE6
:10254000D11D0FB6F894DEBF0FBECDBFED010895CB
:04255000F894FFCF2D
:102554001D010500DC0525332E34660056202D2090
:10256400002E004761696E2050203D2000476169BC
:102574006E2049203D20004761696E2044203D20A3
:10258400002020202020202020203D2000437572A0
:102594002054656D70203D20005365742054656D92
:1025A40070203D20002020202020202020203D00DD
:1025B4004375722054656D70005365742054656DC5
:0225C4007000A5
:00000001FF
