:100000000C942A000C9447000C9447000C94360181
:100010000C9447000C9447000C9447000C94470044
:100020000C9447000C9447000C9447000C94AE01CC
:100030000C9447000C9447000C9447000C94470024
:100040000C9447000C9447000C9447000C94470014
:100050000C94470011241FBECFE5D4E0DEBFCDBF16
:1000600010E0A0E6B0E0E8E3F6E002C005900D92F3
:10007000A43CB107D9F721E0A4ECB0E001C01D9287
:10008000A533B207E1F70E948B020C941A030C947B
:10009000000085BB82B38F7B82BB82B3806882BB4A
:1000A00085E08A95F1F7000082B38F7782BB8FEDF0
:1000B0009EE20197F1F700C00000089585BB82B36E
:1000C000806482BB82B3806882BB85E08A95F1F749
:1000D000000082B38F7782BB8FE99FE00197F1F731
:1000E00000C00000089585BB82B3806482BB82B3E8
:1000F000806882BB85E08A95F1F7000082B38F7734
:1001000082BB8FE99FE00197F1F700C000000895DE
:1001100081B3806C81BB8FEF84BB2FEF89EF90E0C0
:10012000215080409040E1F700C0000088E30E9429
:10013000490025E02A95F1F7000081E00E9449007E
:1001400085E08A95F1F700008EE00E94490095E075
:100150009A95F1F7000080E80E94490087EC90E052
:100160000197F1F700C0000008950F931F93CF93FC
:10017000DF938C019C013695279536952795ABE743
:10018000B4E10E94F902AC01569547959A01ADEC95
:10019000BCEC0E94F9029695879596958795969561
:1001A00087959C01220F331F880F991F880F991F75
:1001B000880F991F820F931F9A01281B390BC901C1
:1001C000805D0E9473009801ADECBCEC0E94F902C6
:1001D000EC01D695C795D695C795D695C7959E013E
:1001E0000E94F9029695879596958795969587959D
:1001F0009C01220F331F880F991F880F991F880FAA
:10020000991F820F931F9E01281B390BC901805D26
:100210000E9473008EE20E945E00CE01880F991F3B
:10022000CC0FDD1FCC0FDD1FCC0FDD1FC80FD91F7A
:10023000C8018C1B9D0B805D0E947300DF91CF91E4
:100240001F910F91089585B58D6085BD8CE783BDA5
:1002500089B7806889BF14BC1092C8001092C90089
:100260001092CA001092CB00789408951F920F92BA
:100270000FB60F9211242F933F934F935F936F9379
:100280007F938F939F93AF93BF93EF93FF9380914F
:10029000C8009091C900A091CA00B091CB0001960E
:1002A000A11DB11D8093C8009093C900A093CA00FE
:1002B000B093CB000E94AD02FF91EF91BF91AF913F
:1002C0009F918F917F916F915F914F913F912F916E
:1002D0000F900FBE0F901F9018952FEF2093CF0017
:1002E0002093CE00DC01CB01880F991FAA1FBB1FF2
:1002F000880F991FAA1FBB1F9C01AD01220F331F3E
:10030000441F551F60E074E284EF90E00E94D70222
:100310002150310971F08AB188698AB980B586683F
:1003200080BD8BB182608BB929B930BD789481E0F2
:10033000089580E008955D9BFECF8CB90895CF931A
:10034000DF93EC0103C00E949B01219688818111FB
:10035000FACF0E949B01DF91CF9108951F920F92D7
:100360000FB60F9211242F933F934F938F939F9328
:10037000EF93FF934CB18091CF00893521F48091A8
:10038000CE00882371F08091CF00082E000C990BCD
:1003900001962091CE00022E000C330B821793079A
:1003A00059F48091CE008F5F8093CE008091CE0073
:1003B0008A3511F41092CE008091CF00893519F45E
:1003C0001092CF0005C08091CF008F5F8093CF0047
:1003D000E091CF000E2E000CFF0BE053FF4F408347
:1003E0008091CE008F3F11F41092CE00FF91EF91DB
:1003F0009F918F914F913F912F910F900FBE0F9032
:100400001F9018958091CE008F3F11F41092CE006E
:10041000E091CE000E2E000CFF0BE053FF4F8081C9
:100420002091CE009091CF00291306C09FEF9093AA
:10043000CF009093CE0008959091CE009F5F90934F
:10044000CE009091CE009A3511F41092CE0008950E
:100450008091CE008F3FD1F09091CE008091CF005F
:1004600098173CF48091CF009091CE00891B8F5F4C
:1004700008959091CE008091CF0089174CF480911F
:10048000CF009091CE00891B855A089580E0089591
:1004900081E008958DE191E0909361008093600088
:1004A0006DE171E082E890E00E9408038CED95E038
:1004B00090936500809364006CED75E086E990E0B0
:1004C0000E9408031092C7001092C60060E070E01E
:1004D0008AEA90E00E94080385E090E09093630030
:1004E0008093620065E070E08EEB90E00E9408036C
:1004F0001092C5001092C4006091C4007091C500B4
:1005000082ED90E00E94080365EC7DE18EE690E0CC
:100510000E94080308958AB3817E8ABB8BB38E61E3
:100520008BBB0E944A0260E072EC81E090E00E9486
:100530006D018823C1F30E94880085EB90E00E9442
:100540009F010E9423012FEF87E893E12150804013
:100550009040E1F700C00000F6CF0E94280280FD25
:100560000E9402020E942802823000F10E940202D0
:1005700080932E010E9402028093310120912E016E
:1005800030E0322F2227A901482BCA0190932D0178
:1005900080932C0181E00E94490080E80E9449007C
:1005A00080912C0190912D010E94B5000895A1E247
:1005B0001A2EAA1BBB1BFD010DC0AA1FBB1FEE1FDD
:1005C000FF1FA217B307E407F50720F0A21BB30B28
:1005D000E40BF50B661F771F881F991F1A9469F7A4
:1005E00060957095809590959B01AC01BD01CF0100
:1005F0000895A29FB001B39FC001A39F700D811DFC
:100600001124911DB29F700D811D1124911D08951B
:100610000E940D03272F0C940E03262FE199FECF85
:100620009FBB8EBB2DBB0FB6F894E29AE19A0FBE2A
:0806300001960895F894FFCF34
:100638001D010500DC0525332E34660056202D20CB
:10064800002E004761696E2050203D2000476169F7
:100658006E2049203D20004761696E2044203D20DE
:10066800002020202020202020203D2000536574D9
:100678002054656D70203D20004375722054656DCF
:1006880070203D20000A09204563686F2054657377
:0406980074200000CA
:00000001FF
